:100000000C94E1060C9428070C9428070C942807FC
:100010000C9428070C9428070C9428070C942807A4
:100020000C9428070C9428070C94452B0C94172C3F
:100030000C944D1D0C9428070C9428070C94280749
:100040000C9428070C9428070C9428070C94280774
:100050000C9428070C94A61D0C9428070C942807D0
:100060000C9428070C9428070C9428070C94280754
:100070000C9428070C9428070C9428070C94280744
:100080000C9428070C9428070C9428070C94280734
:100090000C9428070C9428070C9428070C94280724
:1000A0000C9428070C9428070C942807F612F612D3
:1000B0002813281375139313B414B4149E13331414
:1000C00044144414A414B414B414AD146215621589
:1000D000741574156B157415741574156215621505
:1000E0007015741574157015842CAB2CA32DAB2CC6
:1000F000A32DF72C1A2DA32D712D802D35001E0058
:100100001F00200021002200000023002400250001
:10011000260027002D002B0014001A0008001500EF
:10012000170000001C0018000C0012001300300023
:10013000290004001600070009000A0000000B0057
:100140000D000E000F0033003400E1001D001B0005
:1001500006001900050028001100100036003700C5
:1001600038002F00E000E300E200390001512C00CC
:100170004C002A002E002D00340013503100105086
:100180003A003B003C003D003E0000003F004000C4
:10019000410042004300440012500100010052009F
:1001A00001000100000045000100520001000100B3
:1001B000010001000100500051004F00010000004B
:1001C0000100500051004F0001000100010001003A
:1001D0000100010001000100010001000100010017
:1001E0000100010001000100010001000100010007
:1001F00001000100010001000100010001000100F7
:10020000105000000000000000000000000000008E
:1002100000000000000000000000000000000000DE
:1002200000000000000000000000000000000000CE
:1002300000000000000000000000000000000000BE
:1002400000000000000000000000000000000000AE
:10025000000000000000000000000000000000009E
:10026000000000000000000000000000000000008E
:10027000000000000000000000000000000000007E
:10028000005C1050000000000000000000000000B2
:10029000000000000000000000000000000000005E
:1002A00000005200000000000000000000004B00B1
:1002B00000000000000000000000500051004F004E
:1002C0000000000000004A004E004D000000000049
:1002D00000000000000000000000000028000000F6
:1002E000000000000000000000000000000000000E
:1002F000000000002C004C002A000000000000005C
:100300000100000044454255473A20646973616228
:100310006C65642E0A0044454255473A20656E617B
:10032000626C65642E0A000A002530313662003A9C
:10033000200025303258000A722F632030313233CA
:100340003435363738394142434445460A00556E04
:1003500069636F646520696E707574206D6F646584
:100360002073657420746F3A2025750A00556E69F4
:10037000636F646520696E707574206D6F646520AD
:10038000696E697420746F3A2025750A000A002589
:1003900030325820006B6579626F6172645F7265FC
:1003A000706F72743A20000A0025303258006B6575
:1003B00079626F6172645F7365745F6C65643A2023
:1003C00000290A002575002F002575005D280025ED
:1003D00064002000256400200025640020002564BE
:1003E000007C0025303258006D6F7573656B657940
:1003F000205B62746E7C782079207620685D28729C
:1004000065702F61636C293A205B006D6B5F7768C4
:1004100065656C5F74696D655F746F5F6D61782091
:100420003D2025640A006D6B5F776865656C5F6DC4
:1004300061785F7370656564203D2025640A006DF6
:100440006B5F74696D655F746F5F6D6178203D20CF
:1004500025640A006D6B5F6D61785F73706565641C
:10046000203D2025640A006D6B5F696E74657276AD
:10047000616C203D2025640A006D6B5F64656C61D2
:1004800079203D2025640A006D6B5F776865656C97
:100490005F74696D655F746F5F6D6178203D2025C5
:1004A000640A006D6B5F776865656C5F6D61785F8E
:1004B0007370656564203D2025640A006D6B5F7470
:1004C000696D655F746F5F6D6178203D2025640AFA
:1004D000006D6B5F6D61785F7370656564203D20B2
:1004E00025640A006D6B5F696E74657276616C20BD
:1004F0003D2025640A006D6B5F64656C6179203D69
:100500002025640A000A00257500363A20776865C0
:10051000656C5F74696D655F746F5F6D61783A20BB
:10052000000A00257500353A20776865656C5F6DB7
:1005300061785F73706565643A20000A0025750074
:10054000343A2074696D655F746F5F6D61783A202D
:10055000000A00257500333A206D61785F7370657D
:1005600065643A20000A00257500323A20696E74ED
:10057000657276616C286D73293A20000A00257532
:1005800000313A2064656C6179282A31306D732915
:100590003A20000A092D2056616C756573202D0ADA
:1005A000004D3E004D25643E20003F0073657420E1
:1005B00064656661756C740A00433E200077686567
:1005C00072652064656C74613A20637572736F7232
:1005D0003D25642C20776865656C3D25640A53656C
:1005E0006520687474703A2F2F656E2E77696B6979
:1005F00070656469612E6F72672F77696B692F4D23
:100600006F7573655F6B6579730A000A092D204D5C
:100610006F7573656B6579202D0A4553432F713AC9
:1006200009717569740A313A0964656C6179282A1F
:1006300031306D73290A323A09696E7465727661D8
:100640006C286D73290A333A096D61785F737065A0
:1006500065640A343A0974696D655F746F5F6D6132
:10066000780A353A09776865656C5F6D61785F7304
:10067000706565640A363A09776865656C5F746908
:100680006D655F746F5F6D61780A0A703A09707208
:10069000696E742076616C7565730A643A097365D6
:1006A000742064656661756C74730A75703A092B01
:1006B000310A646F776E3A092D310A706775703AA6
:1006C000092B31300A7067646F776E3A092D31302B
:1006D0000A0A7370656564203D2064656C7461204E
:1006E0002A206D61785F7370656564202A20287206
:1006F0006570656174202F2074696D655F746F5F2C
:100700006D6178290A003F004D3E2000433E2000E5
:100710004C25640A0074696D65725F7265616433AB
:100720003228293A202530346C580A006B657962EA
:100730006F6172645F69646C653A2025580A006BCA
:100740006579626F6172645F70726F746F636F6CF2
:100750003A2025580A00686F73745F6B6579626F81
:100760006172645F6C65647328293A2025580A0019
:100770000A092D20537461747573202D0A004743B4
:10078000433A20352E342E30204156522D4C4942CA
:10079000433A20322E302E30204156525F41524390
:1007A000483A20617672350A004F5054494F4E53F3
:1007B0003A204C554641204D4F5553454B45592005
:1007C00045585452414B455920434F4E534F4C4589
:1007D00020434F4D4D414E4420343039360A0042BB
:1007E00055494C443A202028466562202034203266
:1007F000303231290A005649443A2030784645457E
:10080000442850726F66657429205049443A20305C
:100810007836303632284174726575733632292045
:100820005645523A203078303030310A000A092DCE
:100830002056657273696F6E202D0A000A092D20FB
:10084000436F6E736F6C65202D0A4553432F713AC9
:1008500009717569740A6D3A096D6F7573656B6519
:10086000790A000A092D204D61676963202D0A4429
:100870003A094465627567204D6573736167652049
:10088000546F67676C650A583A094D6174726978EC
:10089000204465627567204D6F646520546F6767FB
:1008A0006C65202D2053686F77206B6579707265B9
:1008B0007373657320696E206D6174726978206747
:1008C0007269640A4B3A094B6579626F6172642000
:1008D000446562756720546F67676C65202D2053EF
:1008E000686F77206B6579707265737320726570BD
:1008F0006F72740A4D3A094465627567204D6F75D1
:10090000736520546F67676C650A563A09566572BD
:1009100073696F6E0A533A095374617475730A43AD
:100920003A09416374697661746520436F6E736F31
:100930006C65204D6F64650A46312D4631303A09A9
:1009400053776974636820746F204C6179657220F5
:10095000302D392028463130203D204C30290A30B6
:100960002D393A0953776974636820746F204C619C
:1009700079657220302D390A47524156453A09535C
:10098000776974636820746F204C617965722030D8
:100990002028616C7465726E617465290A423A0997
:1009A0004A756D7020746F20426F6F746C6F616454
:1009B00065720A4553433A094A756D7020746F2079
:1009C000426F6F746C6F616465722028616C74652E
:1009D000726E617465290A453A095072696E742015
:1009E000454550524F4D2053657474696E67730AC4
:1009F0004253504143453A09436C65617220454575
:100A000050524F4D0A000A002575002E6E6B726F12
:100A10003A20000A002575002E737761705F6261CD
:100A2000636B736C6173685F6261636B7370616346
:100A3000653A20000A002575002E737761705F67A4
:100A4000726176655F6573633A20000A0025750060
:100A50002E6E6F5F6775693A20000A002575002EBB
:100A6000737761705F72616C745F726775693A2049
:100A7000000A002575002E737761705F6C616C74DD
:100A80005F6C6775693A20000A002575002E737740
:100A900061705F7263746C5F726775693A20000AF7
:100AA000002575002E737761705F6C63746C5F6CEA
:100AB0006775693A20000A002575002E636170731E
:100AC0006C6F636B5F746F5F636F6E74726F6C3AA1
:100AD00020000A002575002E737761705F636F6ECA
:100AE00074726F6C5F636170736C6F636B3A20003C
:100AF0000A0025303258006B65796D61705F636F55
:100B00006E6669672E7261773A20000A00257500CB
:100B10002E6D6F7573653A20000A002575002E6BE7
:100B20006579626F6172643A20000A002575002EB3
:100B30006D61747269783A20000A002575002E658F
:100B40006E61626C653A20000A00253032580064FC
:100B5000656275675F636F6E6669672E7261773A6B
:100B600020000A0025750064656661756C745F6C11
:100B7000617965723A20003F000A6D6F7573653ABE
:100B8000206F66660A000A6D6F7573653A206F6E96
:100B90000A000A6B6579626F6172643A206F66665B
:100BA0000A000A6B6579626F6172643A206F6E0A9F
:100BB000000A6D61747269783A206F66660A000AED
:100BC0006D61747269783A206F6E0A000A6465621A
:100BD00075673A206F66660A000A64656275673A4F
:100BE000206F6E0A000A0A4A756D70696E6720747C
:100BF0006F20626F6F746C6F616465722E2E2E2091
:100C000000433E2000436C656172696E6720454574
:100C100050524F4D0A006565636F6E6669673A0A08
:100C2000005B735D004B6579626F61726420737461
:100C30006172742E0A005B575D005B535D005B526E
:100C40005D005B445D005B435D0012034100740086
:100C500072006500750073003600320000000E035C
:100C6000500072006F00660065007400000004030D
:100C7000090409025B00030100A0FA090400000155
:100C80000301010009211101000122400007058133
:100C90000308000A090401000103000000092111F2
:100CA0000100012281000705820320000A090402D5
:100CB00000020300000009211101000122220007A7
:100CC0000583032000010705030320000112011022
:100CD0000100000008EDFE62600100010200010653
:100CE00031FF0974A1010975150026FF00952075D3
:100CF0000881020976150026FF00952075089102EB
:100D0000C005010902A10185020901A10005091917
:100D100001290515002501950575018102950175CB
:100D20000381010501093009311581257F9502757F
:100D300008810609381581257F950175088106050A
:100D40000C0A38021581257F950175088106C0C0FF
:100D500005010980A101850319012AB700150126A3
:100D6000B700950175108100C0050C0901A101852E
:100D70000419012AA002150126A00295017510810F
:100D800000C005010906A101050719E029E71500C2
:100D900025019508750181029501750881010507F6
:100DA000190029FF150026FF00950675088100052A
:100DB00008190129059505750191029501750391A1
:100DC00001C011241FBECFEFDAE0DEBFCDBF04B6F5
:100DD00003FE27C08091820290918302A091840239
:100DE000B09185028730904BA740B04BD1F4109260
:100DF000820210928302109284021092850214BE25
:100E000084B7877F84BF0FB6F894A895809160005F
:100E1000886180936000109260000FBEE0E0F8E30C
:100E2000099511E0A0E0B1E0E8EAFCE502C0059018
:100E30000D92A23AB107D9F722E0A2EAB1E001C0CF
:100E40001D92A238B207E1F70E947C280C94522E22
:100E50000C940000FF93EF93E091A201F091A301A5
:100E6000309709F00995EF91FF910895FC01859164
:100E7000803011F0EFDFFBCF0895FF27E0E230E292
:100E800047FF0CC0419597FF09C0EDE26095709552
:100E900080959095611D711D811D911D27FF02C0D8
:100EA000219530E350E2AA27660F771F881F991F0C
:100EB000AA1FA41710F0A41B63955A95A9F7AA308E
:100EC00008F0A95FA05DAF93F395611571058105E9
:100ED000910541F7ED3211F4EF93F395F21718F401
:100EE0003F93F395FBCF8F91B5DFFA95E1F7089526
:100EF000E991F9918591803021F0853219F0AADFCE
:100F0000F9CF089520E0E89455915532C1F350335C
:100F100011F4689455915A3348F4505390F3220FCA
:100F2000022E220F220F200D250FF4CF0EF4219553
:100F300089919991533619F3533729F1533559F162
:100F4000BC0188279927E8945C3621F4899199910E
:100F500068945591543639F446EF7EF077FF0DC012
:100F60008FEF9FEF0AC055374AE039F0583540E11E
:100F700021F0523642E009F00895FF93EF937DDFB0
:100F8000EF91FF91B7CFFF93EF93FC0181918030F8
:100F9000B9F360DFFBCFFF93EF9368DFF1CFDF930F
:100FA000CF93CDB7DEB72596A3DFCF91DF9108951C
:100FB0009C013A9521153F4138F5DC01AA27B27012
:100FC000AC01442754709C012227387094FF0FC055
:100FD00090FF02C080E101C080E0AB2B09F080628D
:100FE000452B09F08064232B69F080680BC0892FA2
:100FF0008170AB2B09F08260452B09F08460232BB4
:1010000009F08860FB0109940895CF93DF93EC0108
:10101000805E9109089710F0209719F462EB72E155
:1010200002C068E275E1CE010E94D8078C2FDF91E3
:10103000CF910C948811CF93DF93EC010E9437126B
:10104000CE01805E9109089710F0209719F469EBA2
:1010500072E102C06FE275E1CE01DF91CF910C9495
:10106000D807CF93DF93EC010E940508CE01DF91F2
:10107000CF910C941B0881E0089581E008950C94B1
:101080003D0808950C9441081F93CF93DF9300D03F
:1010900000D01F92CDB7DEB749835A836B8330915E
:1010A000BC0189819A81311114C0662359F0222331
:1010B00049F00E949B1A182F682F89819A810E94FB
:1010C000441A03C00E946F1A182F69817A81812FF8
:1010D00004C00E949B1A69817A810F900F900F9033
:1010E0000F900F90DF91CF911F910C942809FC0174
:1010F000262F408151816281738184810C94440840
:10110000CF93DF93EC0160E00E947708BE01DF918E
:10111000CF910C9442080E94FA1B811102C00E94D8
:10112000A11C0E94C10C0C948D0B0C94890B282FD0
:101130002F7041F0822F90E02A3010F44D960895E0
:101140000697089587E290E0089508950E9450154B
:101150000E94A5082FEF84E39CE02150804090403E
:10116000E1F700C000000C94CC1D0F931F93CF93A8
:10117000DF93EC0161E00E9477088C01BE010E94C0
:101180003F08882309F449C0BE01C8010E94740DBC
:10119000882309F442C0BE01C8010E94030E8823BF
:1011A000E1F1BE01C8010E94550E8823B1F1BE01D4
:1011B000C8010E94800F882381F18A81882331F140
:1011C00001308CE5180751F00F3D8CE51807D9F078
:1011D00001151C45D9F40E94A6081FC08091370252
:1011E000C82FC095C170C0FB80F980933702CC2313
:1011F00029F086E193E00E9436070FC084E093E077
:101200000E9436070BC00E94A11C07C0CE01DF91CF
:10121000CF911F910F910C943B08C0E08C2FDF9170
:10122000CF911F910F91089508950C94140981E0B6
:1012300008950C941709CF93C82F0E9415098C2F7D
:101240000E941909CF91089580E090E008950895D3
:1012500021E4829FC0011124FC012DE0729FE00D6A
:10126000F11D1124E60FF11DEE0FFF1FE450FF4F9B
:10127000859194910895880F991FFC01E95DFC4FB9
:10128000859194910895CF93DF930E9428090E943D
:101290005B0AEC018115904508F041C0C11580E45E
:1012A000D80708F0D1C0C83ED10510F5C03ED10521
:1012B00008F0FDC0C83AD10578F4C53AD10508F068
:1012C000A2C0C130D10509F4F2C008F4EEC0C430A8
:1012D000D10508F0ECC0E9C0CF3BD10508F49BC0B4
:1012E000C03CD10508F4E1C0CE01805C91099EC0EC
:1012F000C11590E2D90758F4C11521E0D20708F0D2
:10130000D6C0C03FD10508F4D0C0D065D0C0C1154B
:1013100080E3D80708F08EC0CE019F7087C0C1154A
:1013200095E5D90708F043C0C11524E5D20708F0B8
:10133000A2C0C11582E5D80708F5C11591E5D90706
:1013400008F085C0CE0174E0969587957A95E1F70F
:1013500083709C2F937021E030E002C0220F331F76
:101360009A95E2F73C68382BCF70C695C69580E217
:10137000C89FE0011124C22BD32B99C09E0123707A
:1013800033278C2F86958695C115D34508F064C008
:10139000C1E0D0E002C0CC0FDD1F2A95E2F720E2C9
:1013A000829FC0011124C82BD92BDC6880C0C115D5
:1013B00029E5D207A0F4C11588E5D80708F060C078
:1013C000C11596E5D90708F070C08C2F0E94EF0A6E
:1013D0008F71C82FD0E0DC2FCC27D06268C0C11538
:1013E0002AE5D20708F451C0CE01905681159042EB
:1013F00008F05BC08D2F8F710E94EF0ADD27D0624D
:101400008F71D82B54C0C55AD0E0CD5BDE4FC88158
:10141000D0E0D0644CC0C85AD0E0CC0FDD1FCB5E0A
:10142000DE4F0990D881C02DD46441C00E943B0991
:10143000EC013DC0CE019927D3FF03C0EC01D86C6D
:1014400036C0EC01D06C33C0DF70D06A30C0DC2F06
:10145000CC27C16FD06A2BC0C1E0D0E002C0CC0F56
:10146000DD1F2A95E2F720E2829FC0011124C82BDC
:10147000D92BDA681CC0DC2FCC27C46FD06A17C008
:10148000DC2FCC27C06FD06A12C08C2F8F700E94C7
:10149000EF0A94E0D695C7959A95E1F7CF70D0E022
:1014A000DC2FCC27D069C82B02C0C0E0D0E0CE0131
:1014B000DF91CF9108958238910569F1B0F48133BD
:1014C000910509F46DC048F48932910509F463C0AF
:1014D0008A32910509F469C008958533910509F4AC
:1014E00055C089339105B9F00895833E910569F19E
:1014F00038F4803E9105B1F0823E910509F10895DE
:10150000863E9105A9F1873E9105B9F1843E91058A
:1015100009F064C023C02091730220FD4FC021FD5B
:101520004DC008958091730280FD44C08091740283
:1015300080FF44C08091730284FD42C083EE4DC0A1
:101540008091730282FF38C0F5CF8091730282FDD3
:1015500033C08091740280FD31C0ECCF8091740261
:1015600081FF32C08091730284FD2AC087EE35C0AE
:101570008091730283FF26C0F5CF8091730283FDB3
:1015800021C08091740281FD1FC0ECCF8091730255
:1015900085FD1CC01DC08091730285FD19C016C059
:1015A0008091730286FD16C017C08091730286FD7C
:1015B00013C010C089E311C082EE0FC080EE0DC0D1
:1015C00080E00BC086EE09C084EE07C089E205C04A
:1015D00085E303C08AE201C081E390E00895909121
:1015E000730292FF0DC0282F2871283019F4877FCD
:1015F000846006C0282F2471243011F48B7F88600A
:1016000093FF0DC0282F2871283119F4877E84613B
:1016100006C0282F2471243111F48B7E886120911B
:10162000740220FF0DC0382F3871383019F4877FCD
:10163000816006C0382F3171313011F48E7F88609F
:1016400021FF0DC0282F2871283119F4877E816170
:1016500006C0282F2171213111F48E7E886194FDFE
:10166000877E0895E82FF0E0EE0FFF1FE15AFD4F4F
:10167000808191810895CF92DF92EF92FF920F9334
:101680001F93CF93DF9387E393E00E9436078FE5A4
:10169000E82E82E0F82EC0E0D0E092E3C92E93E07D
:1016A000D92E09E213E0DF93CF93DF92CF920E940D
:1016B000CF078FE293E00E943607F7018191919165
:1016C0007F010E94E71B9F938F931F930F930E94AC
:1016D000CF0787E293E00E94360721968DB79EB729
:1016E00008960FB6F8949EBF0FBE8DBFC530D105CA
:1016F000D1F6DF91CF911F910F91FF90EF90DF9086
:10170000CF90089580EA8A95F1F7089508950C9492
:10171000860B0C94870B0C94860B0C948B0BF89413
:10172000E82FE295EF70F0E031A1282F2F7081E0D3
:1017300090E001C0880F2A95EAF7982F909593239F
:1017400091A392A1892B82A3789408950F931F935C
:10175000CF93DF93C6E4D1E003E511E089910E94C5
:101760008F0B0C171D07D1F782E90E948F0B83E9BD
:101770000E948F0B81E90E948F0B80E90E948F0BE2
:1017800084E90E948F0BE5E5F2E0AFE5B2E011924B
:1017900011921D921D9282E0EF35F807C1F785E0A6
:1017A0000E94710CDF91CF911F910F910C948B08C7
:1017B0004F925F927F928F929F92AF92BF92CF9201
:1017C000DF92EF92FF920F931F93CF93DF9396E4F4
:1017D000E92E91E0F92E00E010E0C0E0CC24C394A3
:1017E000D12C3FE5A32E32E0B32E4701D7018C91D7
:1017F000F894E82FE295EF70F0E021A18F70A60138
:1018000002C0440F551F8A95E2F7CA01922F982B08
:1018100091A392A18095892382A378940E94820B40
:10182000A601002E02C0440F551F0A94E2F7BA0128
:1018300060957095E5E5F2E083E5482E81E0582E4D
:10184000D0E020813181D2017D902D01872D8295BC
:101850008F7090E0DC0190968C9190E0B72DBF7076
:1018600002C095958795BA95E2F780FD04C0C9013D
:10187000842B952B03C0C90186239723281739078A
:1018800019F091838083D1E03296AE16BF06C9F677
:10189000EFEFEE1AFE0AD4018C910E948F0BCD2B34
:1018A0000F5F1F4F0D30110509F09FCF2C2F45E022
:1018B0006FE572E085E592E00E94720C0E94950847
:1018C0008C2FDF91CF911F910F91FF90EF90DF90C0
:1018D000CF90BF90AF909F908F907F905F904F90F0
:1018E00008950895FF920F931F93CF93DF93F82EDF
:1018F000092F162FD72FC42F222349F081E0809380
:10190000A6010E947F1D9093A5018093A401809160
:10191000A6018823D9F08091A4019091A5010E948D
:10192000971D069798F0EF2DF02FA12FBD2F80E087
:1019300090E04C2F50E08417950734F421913191B9
:101940002D933D930196F7CF1092A601DF91CF9191
:101950001F910F91FF900895CF93DF9397FF0DC0D4
:10196000FB012281222349F0EC010E94000DCE01EF
:101970009F770E94570D0E94390D81E0DF91CF9132
:1019800008958CE090E00E94102E90E0A0E0B0E07E
:101990008093690290936A02A0936B02B0936C02E9
:1019A0008091370280FF0EC0809169021F928F9351
:1019B0008DE693E09F938F930E94CF070F900F9037
:1019C0000F900F900895609169028CE090E00C9464
:1019D0001E2E809369020E94E30C8091370280FFE3
:1019E0000EC0809169021F928F938EE493E09F93C3
:1019F0008F930E94CF070F900F900F900F90089534
:101A00000E94C20F8695817080936E029091690248
:101A1000913029F4882319F089E30E949F120E94D3
:101A20001C1B80936D020E942F1B809169028130E4
:101A300071F048F0823081F08430A1F486EE0E948B
:101A40009F1288E10DC082EE0E9488110BC088E1D0
:101A500093E00E94310806C082EE0E94881187E55B
:101A60000E949F128FE39CE90197F1F700C00000EC
:101A7000089580916902813039F078F0823069F000
:101A8000843089F488E20DC08CE20E949F1280911C
:101A90006E02882341F089E304C082EE0E9437126F
:101AA00002C00E949F1280916D020C942C1B0F9318
:101AB0001F93CF93DF938C01CCE0D0E0C8010C2EB4
:101AC00002C0969587950A94E2F78F700E94970856
:101AD0000E9431082497CC3F8FEFD80779F7DF9128
:101AE000CF911F910F9108950F931F93CF93DF9381
:101AF000EC018B01FB018281882351F00E941C1BA9
:101B0000CE01825E9C458530910510F40E94E90C5F
:101B1000B801CE01DF91CF911F910F910C94AC0CC5
:101B20000F931F93CF93DF93C42FD22FFC01828199
:101B30008823C9F04093A9010E947F1D9093A801BA
:101B40008093A70180E28C0F883008F057C0C770DF
:101B500081E001C0880FCA95EAF7DF91CF911F910C
:101B60000F910C94B2128091A901481330C080915A
:101B7000A7019091A8010E94971D883C910538F516
:101B800010E21D0FCD17B9F080E28C0F883040F4C1
:101B9000C77081E001C0880FCA95EAF70E94B912A8
:101BA000183028F581E09D2F977001C0880F9A9515
:101BB000EAF70E94B212802F0E949F121830F0F4B0
:101BC000D77081E001C0880FDA95EAF70AC080E299
:101BD0008C0F883098F4C77081E001C0880FCA95D7
:101BE000EAF7DF91CF911F910F910C94B912802FDA
:101BF000DF91CF911F910F910C949F12DF91CF91A4
:101C00001F910F9108950F939C01CB01243F4CE548
:101C1000340731F188F4293DFCE53F07D9F02A3D2E
:101C20004CE5340779F1283D3C45A9F506E221EE63
:101C300041EE68ED7CE52BC0263FFCE53F07E1F077
:101C4000A8F0273F3C4539F507E225EE46EE67EF61
:101C50007CE51DC007E225EE45EE69ED7CE517C089
:101C600006E221EE40EE64EF7CE511C007E225EECE
:101C700044EE65EF7CE50BC006E221EE42EE66EF36
:101C80007CE505C008E221E045EE6AED7CE50E94B6
:101C9000900D80E008C0FC018281882319F0109229
:101CA000A90101C081E00F910895CF93DF93EC016A
:101CB000FB018281882309F41FC1C230FCE5DF07E4
:101CC00008F41BC1C6319CE5D90738F09E012B5F93
:101CD0003C452930310508F010C10E940D1C90933D
:101CE000740280937302C031ECE5DE0709F4C3C0CF
:101CF00008F041C0C8308CE5D80709F49AC0F0F468
:101D0000C430ECE5DE0709F487C068F4C2308CE526
:101D1000D80709F477C0C330DC4509F0E3C08091EF
:101D20007302826076C0C630ECE5DE0709F46EC04F
:101D300008F07BC08091730288606BC0CC308CE56A
:101D4000D80709F485C068F4CA30ECE5DE0709F469
:101D500074C008F079C00E945015809173028068A9
:101D600058C0CE308CE5D80709F476C008F07FC0A3
:101D7000809173028BC0CC3FECE5DE0709F44FC0C5
:101D800018F5C3318CE5D80709F47DC078F4C1316A
:101D9000ECE5DE0709F473C0C231DC4509F0A2C0EE
:101DA0000E945015809173028F7733C0C5318CE546
:101DB000D80709F472C008F486C0CB3FDC4509F0AF
:101DC00091C0809174023EC0C115FDE5DF0709F4A2
:101DD0005FC058F4CE3F9CE5D90709F444C008F42D
:101DE0003FC08091740282602DC0C230FDE5DF07E4
:101DF00009F475C008F45DC0C330DD4509F072C058
:101E000080E06EC080917302816003C08091730294
:101E100080618093730266C08091730211C08091CB
:101E200074028260809374025DC08091730280624C
:101E3000F0CF809173028064ECCF80917302886050
:101E40008460E7CF8160EECF809173028E7FE1CF17
:101E5000809173028D7FDDCF80917302877FD9CF10
:101E60008091740218C0809174028D7FDBCF8091C5
:101E700073028F7ECECF809173028F7DCACF809107
:101E800073028F7BC6CF80917302877F8B7FC1CF18
:101E9000809174028D7F8E7FC5CF8091730282FB0B
:101EA000222720F991E0922790FB82F990FB83F999
:101EB000B0CF80917402982F909591708E7F892B6E
:101EC00090FB81F9AFCF0E9450158091730287FB80
:101ED000222720F991E0922790FB87F99ACF81E0A1
:101EE0000E94A31C80917302909174020E941E1C98
:101EF0000E94501580E001C081E0DF91CF910895EC
:101F0000CF93DF9386319C4541F5EB010E941C1B6A
:101F1000982F8A812091000130910101882379F066
:101F20009A7A81E009F480E08093AA01911102C0BD
:101F300069E201C065E3C9010E94EA1C0AC0809100
:101F4000AA01811102C069E201C065E3C9010E94D2
:101F5000EC1C0E946D1B80E001C081E0DF91CF91FD
:101F600008959093B0018093AF010895E091AF017F
:101F7000F091B001309721F00190F081E02D0994AB
:101F800080E00895E091AF01F091B001309711F435
:101F900080E008950190F081E02D09950895EF9279
:101FA000FF920F931F93CF93DF93E091AF01F091D6
:101FB000B0013097B1F18C010280F381E02D0995D9
:101FC0008091370282FF2DC080FF04C085E993E035
:101FD0000E943607E80118E08FE8E82E83E0F82E2B
:101FE0008091370280FF0BC088811F928F93FF92F0
:101FF000EF920E94CF070F900F900F900F9011500B
:1020000021961111EDCF8091370280FF0AC08DE833
:1020100093E0DF91CF911F910F91FF90EF900C947F
:102020003607DF91CF911F910F91FF90EF900895A8
:10203000E091AF01F091B001309739F022E0DC017E
:102040002C930480F581E02D099408952091AD0131
:102050003091AE012817390771F09093AE0180934B
:10206000AD01E091AF01F091B001309721F0068011
:10207000F781E02D099408952091AB013091AC01D6
:102080002817390771F09093AC018093AB01E09170
:10209000AF01F091B001309721F00084F185E02D7F
:1020A0000994089585B7806885BF85B7806885BF26
:1020B000089581E008950C94591008950C945D10D2
:1020C0000C945D100C9460100C945D100C946410D2
:1020D0000C945D100E9452100E9468100C946610BF
:1020E0000E94761D0E94A60B0E94DD1D0C946210BA
:1020F000CF93C82F8091370282FF1EC080FF04C09B
:102100008EEA93E00E9436078091370280FF0CC070
:102110001F92CF9389EA93E09F938F930E94CF07FA
:102120000F900F900F900F908091370280FF04C0A6
:1021300087EA93E00E9436078C2FCF910C941B09FD
:102140007F928F929F92AF92BF92CF92DF92EF9247
:10215000FF920F931F93CF93DF93CDB7DEB72A97EC
:102160000FB6F894DEBF0FBECDBF0E945E100E9476
:102170005D100E94D80B0E945B10811111C08FEF7F
:1021800089838A831B820E947F1D8160782F9D83B3
:102190008C8349815A816B818D810E9454114FC07B
:1021A00042EBA42E41E0B42E00E010E0702E802F10
:1021B0000E94320B6C01F501819091905F0188269D
:1021C00099268114910431F40F5F1F4F05301105DA
:1021D00069F7D5CF8091370281FD0E943B0B80E0EB
:1021E000EE24E394F12C94012E213F21232B09F1BD
:1021F0008E837F82CE20DF2081E0CD2809F480E02D
:1022000088870E947F1D8160782F9A8789874E81F9
:102210005F8168858A850E945411000F111FF801A3
:10222000EE54FE4F80819181E826F926F182E0820A
:1022300006C08F5FEE0CFF1C8D30A9F6C5CF0E9443
:102240000E200E94B60F9091B1018917C9F00E942B
:10225000B60F8093B1012A960FB6F894DEBF0FBE79
:10226000CDBFDF91CF911F910F91FF90EF90DF9045
:10227000CF90BF90AF909F908F907F900C947810EC
:102280002A960FB6F894DEBF0FBECDBFDF91CF9177
:102290001F910F91FF90EF90DF90CF90BF90AF9084
:1022A0009F908F907F900895CF93DF93CDB7DEB747
:1022B0002B970FB6F894DEBF0FBECDBF4F83588764
:1022C00069877A878B87DE01119686E0FD0111927E
:1022D0008A95E9F785E0FE01379601900D928A957F
:1022E000E1F749815A816B817C818D819E810E94B9
:1022F00009182B960FB6F894DEBF0FBECDBFDF9145
:10230000CF910895FC01808191810E94DD1A08958A
:10231000CF93882309F4A9C0C82F8238C1F40E9442
:10232000B60F81FDA2C069E3809100019091010187
:102330000E94EA1C0E946D1B2FEF81EE94E0215059
:1023400080409040E1F700C0000069E319C0833885
:1023500001F50E94B60F80FD88C063E58091000101
:10236000909101010E94EA1C0E946D1B2FEF81EEEB
:1023700094E0215080409040E1F700C0000063E508
:1023800080910001909101010E94EC1CCF910C946E
:102390006D1B8438C1F40E94B60F82FD66C067E4ED
:1023A00080910001909101010E94EA1C0E946D1B26
:1023B0002FEF81EE94E0215080409040E1F700C083
:1023C000000067E4DDCF8CEF8C0F813AF8F48C2F9E
:1023D0000E941025811149C06C2F809100019091BD
:1023E00001010E94B41C882349F06C2F80910001E8
:1023F000909101010E94EC1C0E946D1B6C2F80913A
:102400000001909101010E94EA1CC0CF80E28C0F74
:10241000883048F4C77081E001C0880FCA95EAF798
:102420000E941F1BB3CFEBE5EC0FE33040F4F0E06C
:10243000EA57FE4F808190E0CF910C942610E8E59A
:10244000EC0FE73150F4F0E0EE0FFF1FE85AFE4FBB
:1024500080819181CF910C943C10C03F30F08C2F43
:102460000E94811ECF910C946E1FCF9108958823F6
:1024700009F464C0823879F40E94B60F81FF5EC00F
:1024800069E380910001909101010E94EA1C0E9481
:102490006D1B69E310C08338B1F40E94B60F80FF52
:1024A0004DC063E580910001909101010E94EA1CFA
:1024B0000E946D1B63E580910001909101010E94D3
:1024C000EC1C0C946D1B843879F40E94B60F82FFCB
:1024D00035C067E480910001909101010E94EA1CDF
:1024E0000E946D1B67E4E7CF9CEF980F913A10F4C0
:1024F000682FE1CF90E2980F983050F4877091E008
:1025000001C0990F8A95EAF7892F0E94251BD9CF20
:102510009BE5980F933020F480E090E00C94261017
:1025200098E5980F973120F480E090E00C943C10EF
:10253000803F20F00E94E91E0C946E1F0895CF93F7
:10254000C82F0E948811C93349F42FEF87EE93E01A
:10255000215080409040E1F700C000008C2FCF91C7
:102560000C943712882321F00E941F1B0C946D1BC2
:102570000895882321F00E94251B0C946D1B08955B
:10258000CF92DF92EF92FF920F931F93CF93DF933F
:102590007C01062FC72FFC01158112951F70D28177
:1025A000D1110E943F1B0E94151B882399F0DD2347
:1025B00089F08C2F807F803421F080E2800F88307A
:1025C00048F082E00E94B71B0E94151B91E0D82EB4
:1025D000D92601C0D12CCC2EC2948FE0C8228C2DDC
:1025E00090E0FC01EA5AFF4F0C94F62D8C2F807F6F
:1025F000CF70882311F0C295C07FDD2399F0CC23E2
:1026000009F48DC180E2800F883010F0011104C000
:102610008C2F0E941F1B03C08C2F0E94321B0E9414
:102620006D1B7DC1802F0E943712CC2309F49CC101
:1026300080E2800F883010F0011104C08C2F0E94BE
:10264000251B03C08C2F0E94381B0E946D1B8CC160
:102650008C2F807FCF70803211F0C295C07F002315
:1026600019F00130C9F022C0DD2371F0112341F0CF
:10267000113031F40E94521B8C2B0E945A1B74C1E2
:102680000E94521B8C2B1DC0112319F0113009F42C
:102690006BC10E94631B25C0DD2321F0163008F0BA
:1026A00063C10EC0153008F05FC11BC0DD2361F0AF
:1026B000112331F0F701858180FF31C18F7085834F
:1026C0008C2F0E94B21250C1112359F0093309F026
:1026D00037C1FFEF27EE83E0F15020408040E1F763
:1026E0002DC18C2F0E94B9123FC18C2F86958695E3
:1026F000837019F0813061F037C1DD2321F0802F24
:102700009C2F937002C080E090E00E94261034C19C
:10271000DD2321F0802F9C2F937002C080E090E099
:102720000E943C1029C1802FDD2319F00E94811ED8
:1027300002C00E94E91E0E946E1F1EC18C2F837072
:1027400009F045C0D11114C1402F429546954770FC
:10275000440F440F602F6F70862F90E0A0E0B0E030
:10276000042E04C0880F991FAA1FBB1F0A94D2F71A
:1027700004FF10C00FE010E020E030E004C0000FC4
:10278000111F221F331F4A95D2F7009510952095EF
:10279000309503C000E010E09801C695C695C3705F
:1027A000BC01CD01602B712B822B932BC23049F0E1
:1027B00058F4C13019F00E945A19DAC00E94481921
:1027C000D7C00E946C19D4C00E944619D1C0DD2325
:1027D00019F08C2F817001C08695882309F4C8C038
:1027E000402F429546954770440F440F602F6F70FD
:1027F000862F90E0A0E0B0E0042E04C0880F991F5F
:10280000AA1FBB1F0A94D2F704FF10C00FE010E00C
:1028100020E030E004C0000F111F221F331F4A9533
:10282000D2F7009510952095309503C000E010E098
:102830009801C695C695C370BC01CD01602B712B64
:10284000822B932BC23049F058F4C13019F00E940A
:102850001F1A8EC00E940D1A8BC00E94311A88C0A8
:102860000E94801985C0CF70DD2339F08C2F0E9423
:10287000A619802F0E94B2127BC0802F0E94B9122D
:102880008C2F0E94C71974C0023F01F128F4003F49
:1028900041F0013FA1F03FC0033FF9F0043F39F19F
:1028A0003AC0DD2341F0153008F05EC08C2F8F71E7
:1028B0000E94EC1959C0163008F056C0F7CFDD233E
:1028C00039F08C2F8F710E94A6194EC0DD23C9F3F9
:1028D0008C2F8F710E94C71947C0DD2329F08C2FE0
:1028E0008F710E94911940C00E948C193DC0DD2358
:1028F00049F0CF718C2F0E94A61963E08C2F0E94A3
:10290000A21B32C081E00E94B71B123068F182E046
:102910000E94B71B29C0DD2331F0112391F2802FD3
:102920000E94881121C0112399F2093349F49FEFC5
:10293000E7EEF3E09150E040F040E1F700C0000026
:10294000802F0E94371210C04C2F4F70602FC7018C
:102950000E9424090E94B7180FC04C2F4F70602F9F
:10296000C7010E94270908C088EF8C0D843020F42D
:102970000E94B60F0E941B09DD20C9F00E94111BA6
:1029800080FD15C0F70112820E940B1B0E94A61940
:10299000C7010E94F8140E940B1BDF91CF911F9179
:1029A0000F91FF90EF90DF90CF900C94C719DF91BB
:1029B000CF911F910F91FF90EF90DF90CF900895EE
:1029C0000F931F93CF93DF93EC01688179818A8104
:1029D0000E94E81A8C010E94431A0E943419B8011F
:1029E000CE010E94C012DF91CF911F910F910895E7
:1029F000CF93DF93EC01988189812B813C81232B3C
:102A000031F08F3F31F481E09F3F19F403C081E042
:102A100001C080E080FD19C0CE010E94B50881117F
:102A20000CC00E94151B882381F08A81882369F0DD
:102A300082E0DF91CF910C94B71BCE010E94E0148D
:102A4000CE01DF91CF910C948008DF91CF91089552
:102A5000882321F00E94321B0C946D1B089588235B
:102A600021F00E94381B0C946D1B08950E943F1B9F
:102A70000E944F1B0E946D1B0E9421210E946E1F0D
:102A800080E090E00E94261080E090E00C943C10E2
:102A900080910001909101010E94EE1C0C9436156A
:102AA0000E942F1B0C944815E92FE295EF704E2FD2
:102AB00050E0FA013297EE30F105B0F4EA59FF4FD9
:102AC0000C94F62D803F91F018F4883E68F40EC007
:102AD000843F51F40BC0883E48F0813F29F406C082
:102AE00093FB882780F9089580E0089581E0089598
:102AF0000E94DD1A0E9454150895CF93DF9300D0F1
:102B000000D01F92CDB7DEB70F900F900F900F90AF
:102B10000F90DF91CF910895CF93DF9300D000D035
:102B200000D0CDB7DEB726960FB6F894DEBF0FBE45
:102B3000CDBFDF91CF9108951F93CF93DF93C091C5
:102B4000BD0116E08091BE01C81799F0D0E01C9F2E
:102B5000F0011D9FF00D1124E154FE4F4081518181
:102B600062817381848195810E948C152196C77042
:102B7000E9CFDF91CF911F9108954091EF015091DE
:102B8000F0016091F1017091F2018091F301909157
:102B9000F4010C948C150F931F93CF93DF938091C6
:102BA000F40182958F7009F05DC08091F101882356
:102BB00009F458C08091BD011091BE016091EF01F0
:102BC0007091F001C091F201D091F30191E06F3F5B
:102BD00009F090E0292F06E0811709F443C02097FF
:102BE00021F07F3F21F030E003C031E001C0322FFF
:102BF00090E030FD34C0089FF001099FF00D1124D2
:102C0000DF01A154BE4F11963C911197371327C095
:102C10003C91361324C012963C91129731111FC07B
:102C200013964D915C9114974C1B5D0B483C5105DC
:102C3000B0F48091F4018F7080618093F401EC53C3
:102C4000FE4F80818F70806180838FEE91E00E94C3
:102C5000F814DF91CF911F910F910C949C15019660
:102C60008770BACFDF91CF911F910F9108959F92F6
:102C7000AF92BF92CF92DF92EF92FF920F931F938A
:102C8000CF93DF93CDB7DEB761970FB6F894DEBF71
:102C90000FBECDBF8C0185E0F801DE011D960190CD
:102CA0000D928A95E1F7F80140815181E28090917F
:102CB000EF016091F0012091F2013091F3012115B3
:102CC000310531F06F3F31F481E09F3F19F403C0CB
:102CD00081E001C080E0F82FF1709F2E80FD46C199
:102CE000F801A380B4808FEEC82E81E0D82EF0903A
:102CF000F101F501E21BF30BFF2009F4DFC0809125
:102D0000F401E83CF10508F09BC0282F207F09F072
:102D100052C0561313C0491311C0FE2CE1100EC04F
:102D20008F7080618093F4010E94BD15C6010E94DE
:102D3000F8148091F401F801858358C1AB2831F073
:102D40005F3F31F481E04F3F19F403C081E001C0DF
:102D500080E080FD03C081E08E2502C080E090E02D
:102D6000F82FF170FF2E80FF1CC08091BD012091D3
:102D7000BE0136E0821709F417C190E0389FF001D8
:102D8000399FF00D1124E154FE4F6181561306C0A6
:102D90006081461303C06281E61203C0019687700A
:102DA000E9CFFE2CEE2009F421C18091F40181606D
:102DB0008093F4015AC0561306C0491304C0E110B1
:102DC00002C0F8019FC04D875E878D859E850E9459
:102DD0007815882379F1EE2069F12091F401822F92
:102DE00082958F7090E0029774F08091EF0190913E
:102DF000F00198878F831986BB86AA862C87CE011F
:102E000007960E94F81486E0F801AFEEB1E0019059
:102E10000D928A95E1F70E94CB150E94BD150DC059
:102E2000561729F14D875E878D859E850E947815FE
:102E300081112CC0C8010E94F814FF24F394D6C05D
:102E4000282F207F69F77A2DB98AA88A6E2D898963
:102E50000E947D158FEE91E00E94F81486E0F60145
:102E600011928A95E9F70E94BD15F12CBFC0491354
:102E7000D9CFE110D7CFF8018583C8010E94F8149B
:102E800086E0F60111928A95E9F7B0C0EE2091F242
:102E90002091F401822F82958F7090E002970CF4BC
:102EA000B2CF8091EF019091F0019A8389831B82C8
:102EB000BD82AC822E83CE010196A3CFE83CF10502
:102EC00008F047C0FE2CEE2009F4B4CF561330C0F2
:102ED00049132EC02091F40120FD21C0822F82953C
:102EE0008F70482F50E041155105C9F0F801258336
:102EF0004F30510541F08F5F982F9295907F822F30
:102F00008F70892B8583C8010E94F81486E0F80130
:102F1000AFEEB1E001900D928A95E1F742C086E0F4
:102F2000F801AFEEB1E001900D928A95E1F75EC035
:102F30004D875E878D859E850E947815811163CFB0
:102F40008091F40181608093F401C8010E94F8141B
:102F50004DC07A2DB98AA88A6E2D89890E947D1567
:102F600086E0F60111928A95E9F71BC0EE2009F47C
:102F700061CF4D875E878D859E850E947815F82EDE
:102F8000882309F457CF86E0F801AFEEB1E0019055
:102F90000D928A95E1F78FEE91E00E9482110E94D6
:102FA000CB150E94BD1522C04D875E878D859E85FD
:102FB0000E94DD1A292F22952F70223028F49F704D
:102FC00039F0811105C00BC0243028F49F7049F4FA
:102FD000805E883020F0C8010E94F8149F2CF92CE4
:102FE00005C0F8019581907F99F7F9CF8F2D6196F3
:102FF0000FB6F894DEBF0FBECDBFDF91CF911F910A
:103000000F91FF90EF90DF90CF90BF90AF909F9087
:1030100008951F93CF93DF93CDB7DEB72C970FB6EC
:10302000F894DEBF0FBECDBF4F83588769877A877C
:103030008B879C87CE0107960E9437168823D1F094
:103040009F8188852A853B85232B31F08F3F31F482
:1030500081E09F3F19F403C081E001C080E080FD62
:1030600047C04F81588569857A858B859C850E94EC
:103070008C153EC086E0FE013796DE011196019068
:103080000D928A95E1F7FF81E8856A857B85611558
:10309000710531F0EF3F31F481E0FF3F19F403C0D7
:1030A00081E001C080E080FD23C02091BE0130E0BE
:1030B000C9010196877099274091BD0150E084179E
:1030C0009507F1F1F983EA837D836C8396E0929F03
:1030D000D001939FB00D1124A154BE4FFE01319633
:1030E00001900D929A95E1F78093BE010E949C1584
:1030F00016E08091BD019091BE01891771F1189F72
:10310000C001112481549E4F0E943716882329F153
:10311000E091BD011E9FF0011124E154FE4F40815A
:10312000518162817381848195810E948C15809187
:10313000BD0190E00196877099278093BD01D9CF9A
:103140000E9450151092BE011092BD01EFEEF1E009
:1031500086E0DF011D928A95E9F72C960FB6F89468
:10316000DEBF0FBECDBFDF91CF911F910895EF92CB
:10317000FF920F931F93CF93DF938C01892B09F458
:103180006CC0F12CEE24E394E8012196F8018491BF
:10319000843740F4843008F051C0813081F08230AF
:1031A00019F15BC0853709F444C0A8F19CE7980F7A
:1031B000903708F052C08F770E94371241C00E5FDF
:1031C0001F4FFE01849190E2980F983050F4877061
:1031D000FE2D01C0FF0F8A95EAF78F2F0E94421B38
:1031E00014C00E9488112DC00E5F1F4FFE018491F4
:1031F00090E2980F983060F48770FE2D01C0FF0FA9
:103200008A95EAF78F2F0E94481B0E946D1B19C0F8
:103210000E94371216C00E5F1F4FFE01C491CC23CF
:1032200081F08FE99FE00197F1F700C00000C150E5
:10323000F6CF0E5F1F4FFE01F49003C00E9488116D
:103240008E018F2D882309F49FCFEFE9FFE031979E
:10325000F1F700C000008150F5CFDF91CF911F91B1
:103260000F91FF90EF900895089508950C943519EB
:103270000C9436190E943819609326027093270225
:1032800080932802909329020C9436150C943A19D5
:103290000F931F930091260210912702209128027C
:1032A00030912902602B712B822B932B1F910F9150
:1032B0000C943A190F931F93009126021091270244
:1032C00020912802309129026023712382239323C5
:1032D0001F910F910C943A190F931F93009126029E
:1032E000109127022091280230912902602771272E
:1032F000822793271F910F910C943A190C9435193A
:103300000E947E196093220270932302809324020C
:10331000909325020C94361560E070E0CB010C947C
:1033200080190F931F9341E050E060E070E08A0144
:103330009B0104C0000F111F221F331F8A95D2F773
:10334000C901B8011F910F910C9480190F931F931D
:1033500041E050E060E070E004C0440F551F661F7C
:10336000771F8A95D2F78091220290912302A09133
:103370002402B09125028A019B01082B192B2A2BCC
:103380003B2BC901B8011F910F910C9480190F9329
:103390001F9341E050E060E070E004C0440F551F0F
:1033A000661F771F8A95D2F7409550956095709566
:1033B0008091220290912302A0912402B0912502D3
:1033C0008A019B01082319232A233B23C901B80141
:1033D0001F910F910C9480190F931F9341E050E0BF
:1033E00060E070E004C0440F551F661F771F8A9588
:1033F000D2F78091220290912302A0912402B091F1
:1034000025028A019B01082719272A273B27C90182
:10341000B8011F910F910C9480190F931F93009185
:103420002202109123022091240230912502602B68
:10343000712B822B932B1F910F910C9480190F935A
:103440001F930091220210912302209124023091B7
:10345000250260237123822393231F910F910C94E3
:1034600080190F931F930091220210912302209143
:1034700024023091250260277127822793271F910C
:103480000F910C94801908952DE0929F800D1124C6
:10349000E82FE695E695E695877051E001C0550F57
:1034A0008A95EAF785E0E89FF0011124EB50FE4F82
:1034B00020E030E070E04081CB01022E02C0969502
:1034C00087950A94E2F78170819584278523842764
:1034D00081932F5F3F4F2530310569F708952DE027
:1034E000929F800D1124682F669566956695982F9A
:1034F000977085E0689FB001112440E050E080E0C3
:10350000FB01E40FF51FEB50FE4F208130E0092E48
:1035100002C0369527950A94E2F721703327042ECE
:1035200001C0220F0A94EAF7822B4F5F5F4F4530AC
:10353000510531F70895BF92CF92DF92EF92FF923B
:103540000F931F93CF93DF938C01C0902202D090F2
:103550002302E0902402F0902502809126029091AF
:103560002702A0912802B0912902C82AD92AEA2A62
:10357000FB2ACFE1D0E0D701C6010C2E04C0B695DE
:10358000A795979587950A94D2F780FD04C0219757
:1035900090F7B12C07C0BC2EB8018C2F0E944309B4
:1035A0000197A9F38B2DDF91CF911F910F91FF9080
:1035B000EF90DF90CF90BF900895CF93DF93EC0111
:1035C0000E949B1ABE010E944309DF91CF9108958A
:1035D0001F93CF93DF93EB019091BC01992321F0CE
:1035E000CB010E94DD1A13C0882349F0CB010E9451
:1035F0009B1A182F682FCE010E94441A04C0CB01D9
:103600000E946F1A182FBE01812F0E944309DF917B
:10361000CF911F91089580912A0285958595859572
:10362000089580912A028770089590912A029770D8
:1036300081E009F480E00895809136020895909128
:103640003602892B80933602089580959091360238
:10365000892380933602089580933602089510924C
:103660003602089590913502892B80933502089592
:1036700080959091350289238093350208951092A8
:103680003502089590913402892B80933402089575
:10369000809590913402892380933402089510928A
:1036A0003402089580912B02089508950C94551BBF
:1036B0000C94561B90912B02981721F080932B02AB
:1036C0000C94581B089580912B02882329F01092A6
:1036D0002B0280E00C94581B0895E0910001F091BA
:1036E0000101809136028083E0910001F091010197
:1036F000908180913502892B8083E0910001F091C7
:103700000101908180913402892B808380912B026A
:10371000882381F0E0910001F09101019081892BD3
:10372000808380910001909101010E94A81C811169
:103730000E94631B80910001909101010C94CF0FB6
:103740000C94551B98E0899F90011124262B2093FF
:103750002A020E94A61980912A0285958595859551
:103760000C94A01B10922A0280E00C94A01B2091C4
:103770002A028095822380932A02982F977079F4E9
:1037800030E0482F082E000C550B2417350739F070
:103790008595859585950E94C7190C94B21B08954F
:1037A0009093A3018093A20108958295982F93731B
:1037B00044E0949F900111248C7C86958695282B5B
:1037C000822F8575880F2A7A2695822B0895CF93AC
:1037D000DF93D92F0E94D51BC82F8D2F0E94D51B98
:1037E0002C2F30E0322F2227A901482BCA01DF916C
:1037F000CF91089580E090E00E94182E21E08C3E49
:103800009E4F09F020E0822F089582E090E00C9412
:10381000102E83E090E00C94102ECF9384E090E083
:103820000E94102EC82F81E290E00E94102E2C2FB3
:1038300030E0A901582BCA01CF910895CF93C92F29
:10384000682F84E090E00E941E2E6C2F81E290E0B1
:10385000CF910C941E2EAB01BC018FE090E00C9434
:10386000302EAB01BC0183E190E00C94302E60E07F
:1038700070E0CB010C94311C60E070E0CB010E9441
:103880002B1C0C94371C6CEE7EEF80E090E00E94C5
:103890003C2E60E082E090E00E941E2E60E083E01B
:1038A00090E00E941E2E1092260210922702109283
:1038B00028021092290260E084E090E00E941E2E0F
:1038C00060E081E290E00E941E2E60E085E090E0E2
:1038D0000E941E2E60E086E090E00E941E2E6FEF98
:1038E00087E090E00E941E2E40E050E0BA0188E0A0
:1038F00090E00E94302E60E08DE090E00E941E2E4D
:1039000040E050E0BA0188E190E00E94302E60E093
:1039100087E190E00E941E2E40E050E0BA018CE169
:1039200090E00E94302E60E080E290E00E941E2E27
:1039300040E050E0BA0188E190E00E94302E0C9403
:103940003C1C0C94431C682F8EE090E00C941E2EBF
:10395000FC01329697E080E0915029F021912223DA
:10396000D9F38F5FF9CF0895662349F0FC013296B1
:1039700008962191621729F0E817F907D1F780E03E
:10398000089581E008959C01FC0132969FEF80E04C
:103990004191461789F09F3F19F4411101C0982FBA
:1039A0008F5F8630A9F79F3F39F0F901E90FF11DCC
:1039B00097FDFA956283089508959C012A5F3F4F11
:1039C000FC014281461301C01282019682179307BF
:1039D000B9F708950C94C31C0C94DD1C029626E0E4
:1039E000FC0111922A95E9F7089508950C94F51CAD
:1039F0000C94F51CCF930E94F81C0E94D80B0E94D7
:103A0000F61CC0E08C2F0E94320B892B29F4CF5F6B
:103A1000C530C1F780E001C081E0CF9108950C94DA
:103A2000F51C0C940F1D0E94111D809179028430A9
:103A300049F11092380220E488E190E00FB6F89442
:103A4000A895809360000FBE2093600080E00E94E4
:103A50001B090E94111D83B7817F846083BF83B7D8
:103A6000816083BF7894889583B78E7F83BF0FB6BC
:103A7000F894A8958091600088618093600010920E
:103A800060000FBE08950C94F51C0E9450150E9412
:103A9000B60F0E941B090C94431D1F920F920FB684
:103AA0000F9211248F939F93AF93BF93809138020D
:103AB000811113C080916F0290917002A0917102E8
:103AC000B09172024196A11DB11D80936F02909337
:103AD0007002A0937102B0937202BF91AF919F9157
:103AE0008F910F900FBE0F901F90189582E084BDAC
:103AF00093E095BD9AEF97BD80936E0008952FB720
:103B0000F89480916F0290917002A0917102B0912F
:103B100072022FBF08952FB7F89460916F027091D1
:103B2000700280917102909172022FBF08959C01E2
:103B30004FB7F89480916F0290917002A09171023A
:103B4000B09172024FBF821B930B089578941F921D
:103B50000F920FB60F9211248F939F93AF93BF9341
:103B600080916F0290917002A0917102B0917202E7
:103B70000196A11DB11D80936F0290937002A093D6
:103B80007102B0937202BF91AF919F918F910F908C
:103B90000FBE0F901F90189587E797E79093010845
:103BA000809300089AE088E10FB6F894A895809376
:103BB00060000FBE90936000FFCF0E94FA1B81113E
:103BC00002C00E94A11C0E94051C809337020E9423
:103BD0000D1C90937402809373020E94091C682F3D
:103BE00070E080E090E00E9446196091220270919E
:103BF000230280912402909125020C947E198091D9
:103C00003F0280FF0BC06091070185E0689FB00113
:103C1000112475956795759567952BC081FF09C02F
:103C20006091070185E0689FB00111247595679543
:103C300020C082FF07C06091070185E0689FB00146
:103C4000112417C090913E029923D1F06091060192
:103C5000961788F72091070185E0289F900111248D
:103C6000929FA001939F500D112470E0CA010E9401
:103C7000E22D6038710540F46115710519F406C034
:103C800065E070E0862F08958FE7089581E008953C
:103C900080913F0280FF08C06091030170E075953C
:103CA00067957595679521C081FF06C060910301F6
:103CB00070E07595679519C082FF04C0609103019B
:103CC00070E010C090913D02992399F0609102013B
:103CD0009617A0F780910301899FC001112470E01D
:103CE0000E94E22D6038710540F46115710519F4E8
:103CF00006C061E070E0862F08958FE7089581E0A7
:103D00000895803F21F40E94FF1D819504C0813FEA
:103D100029F40E94FF1D809343020895823F21F4FD
:103D20000E94FF1D819504C0833F29F40E94FF1D5E
:103D3000809342020895893F19F40E94481E05C0ED
:103D40008A3F31F40E94481E819580934402089571
:103D50008B3F21F40E94481E819504C08C3F29F4BA
:103D60000E94481E809345020895843F21F480916B
:103D70004102816017C0853F21F480914102826039
:103D800011C0863F21F48091410284600BC0873FBF
:103D900021F480914102886005C0883F31F4809110
:103DA000410280618093410208958D3F21F480910A
:103DB0003F0281600BC08E3F21F480913F02826000
:103DC00005C08F3F29F480913F02846080933F02B9
:103DD0000895803F39F48091430287FF6AC01092B2
:103DE000430267C0813F29F4809143021816BCF357
:103DF00060C090914202823F29F497FF5AC010920E
:103E0000420257C0833F19F41916CCF352C0909167
:103E10004402893F31F419160CF04BC01092440251
:103E200048C08A3F19F497FF44C0F8CF8B3F39F45C
:103E30008091450287FF3DC0109245023AC08C3FF9
:103E400029F4809145021816BCF333C0843F21F455
:103E5000809141028E7F17C0853F21F480914102FD
:103E60008D7F11C0863F21F4809141028B7F0BC072
:103E7000873F21F480914102877F05C0883F31F45C
:103E8000809141028F7E8093410213C08D3F21F4C7
:103E900080913F028E7F0BC08E3F21F480913F02C4
:103EA0008D7F05C08F3F29F480913F028B7F8093E7
:103EB0003F0280914202811106C08091430281112C
:103EC00002C010923E0280914402811106C080918E
:103ED0004502811102C010923D020895809137027F
:103EE00083FF7EC088EE93E00E94360780914102F6
:103EF0001F928F9383EE93E09F938F930E94CF073F
:103F000081EE93E00E94360780914202282F082E0E
:103F1000000C330B3F938F938EED93E09F938F9321
:103F20000E94CF078CED93E00E94360780914302F8
:103F3000282F082E000C330B3F938F9389ED93E0CD
:103F40009F938F930E94CF0787ED93E00E943607DF
:103F500080914402282F082E000C330B3F938F933F
:103F600084ED93E09F938F930E94CF0782ED93E0BF
:103F70000E94360780914502282F082E000C330B33
:103F80003F938F938FEC93E09F938F930E94CF0783
:103F90008CEC93E00E94360780913E021F928F9333
:103FA00089EC93E09F938F930E94CF0787EC93E077
:103FB0000E94360780913F021F928F9384EC93E01A
:103FC0009F938F930E94CF0781EC93E00E94360766
:103FD0008DB79EB74C960FB6F8949EBF0FBE8DBF9F
:103FE0000E947F1D20914202211104C020914302B2
:103FF000222321F090933C0280933B0220914402C3
:10400000211104C020914502222321F090933A020D
:104010008093390280E492E00C941810EF92FF92A2
:104020000F931F93CF93DF9300D000D000D0CDB774
:10403000DEB786E0E0E4F2E0DE01119601900D9239
:104040008A95E1F7E0904202F09043020091440229
:1040500010914502109242021092430210924402C3
:1040600010924502E11003C0FF2009F45DC0809169
:104070003B0290913C020E94971DAC0190913E0240
:10408000992339F02091080130E02417350758F0C2
:104090004BC0209109018AE0289F90011124241728
:1040A000350718F041C09F3F19F09F5F90933E0283
:1040B000EE2061F00E94FF1D1E1414F09FEF01C05E
:1040C00091E0989F902D112490934202FF2061F07F
:1040D0000E94FF1D1F1414F09FEF01C091E0989FF4
:1040E000902D112490934302309142023323E1F04A
:1040F000209143022223C1F045EB3403C001112477
:10410000992319F09093420203C081E08093420208
:1041100035EB2303C0011124992319F09093430236
:1041200003C081E080934302011103C0112309F40D
:104130005DC08091390290913A020E94971DAC01B6
:1041400090913D02992339F02091040130E0241729
:10415000350758F04BC0209105018AE0289F900157
:1041600011242417350718F041C09F3F19F09F5FB5
:1041700090933D02002361F00E94481E101614F037
:104180009FEF01C091E0989F902D112490934402DD
:10419000112361F00E94481E111614F09FEF01C018
:1041A00091E0989F902D1124909345023091440204
:1041B0003323E1F0209145022223C1F045EB340383
:1041C000C0011124992319F09093440203C081E0A7
:1041D0008093440235EB2303C0011124992319F085
:1041E0009093450203C081E0809345028091420292
:1041F00081110BC080914302811107C0809144025C
:10420000811103C08091450281110E946E1FEB82D3
:10421000FC820D831E8386E0FE013196A0E4B2E0AD
:1042200001900D928A95E1F726960FB6F894DEBFBD
:104230000FBECDBFDF91CF911F910F91FF90EF90F7
:104240000895E0E4F2E086E0DF011D928A95E9F747
:1042500010923E0210923D0210923F0208958BE0B0
:1042600096E00E9436071F9281E08F931F9285E0AF
:104270008F938DEB95E09F938F930E94CF070F90C4
:104280000F900F900F900F900F9008958330E9F1E9
:1042900028F4813061F0823009F10895853009F405
:1042A00062C008F449C0863009F474C00895809152
:1042B0000901262F30E0280F311D2F3F310524F44E
:1042C000680F6093090103C08FEF8093090180910B
:1042D00009011F928F9386EF94E072C080910801CC
:1042E000262F30E0280F311D2F3F310524F4680FB1
:1042F0006093080103C08FEF80930801809108014B
:104300001F928F9384EE94E05BC080910701262F6B
:1043100030E0280F311D2F3F310524F4680F6093E2
:10432000070103C08FEF80930701809107011F925F
:104330008F9381ED94E044C080910601262F30E0F8
:10434000280F311D2F3F310524F4680F60930601BB
:1043500003C08FEF80930601809106011F928F9317
:104360008CEB94E02DC080910301262F30E0280FC4
:10437000311D2F3F310524F4680F6093030103C002
:104380008FEF80930301809103011F928F9383EA43
:1043900094E016C080910201262F30E0280F311DD5
:1043A0002F3F310524F4680F6093020103C08FEFA3
:1043B00080930201809102011F928F9388E894E01C
:1043C0009F938F930E94CF070F900F900F900F90A5
:1043D0000895833081F128F4813059F08230D1F092
:1043E0000895853009F449C0B8F1863009F456C003
:1043F000089580910901681720F4861B80930901B4
:1044000002C010920901809109011F928F9389E7E0
:1044100094E054C080910801681720F4861B8093B3
:10442000080102C010920801809108011F928F9329
:1044300087E694E043C080910701681720F4861B4B
:104440008093070102C010920701809107011F921B
:104450008F9384E594E032C080910601681720F4C0
:10446000861B8093060102C010920601809106010E
:104470001F928F938FE394E021C08091030168170E
:1044800020F4861B8093030102C0109203018091E7
:1044900003011F928F9386E294E010C08091020185
:1044A000681720F4861B8093020102C0109202015B
:1044B000809102011F928F938BE094E09F938F93E2
:1044C0000E94CF070F900F900F900F900895CF93F9
:1044D000C82F1F928F9380E197E09F938F930E9444
:1044E000CF0781E090E0A0E0B0E0BC01CD0104C0C6
:1044F000660F771F881F991FCA95D2F70E94461929
:104500000F900F900F900F90CF910C945015CF9368
:10451000DF938B3109F4EAC108F08BC18B3009F4C9
:10452000AEC108F065C1863009F4ACC120F4853015
:1045300009F4BAC15DC2873009F4BDC1883009F001
:1045400057C286E19CE00E94360787E69BE00E9406
:1045500036070E94091C1F928F9384E69BE09F936D
:104560008F930E94CF0782E69BE00E9436070E944D
:10457000051CC82F8FE49BE00E9436071F92CF9343
:104580008AE49BE09F938F930E94CF0788E49BE08F
:104590000E9436078EE39BE00E9436078C2F8170C5
:1045A0001F928F938BE39BE09F938F930E94CF0783
:1045B00089E39BE00E9436078FE29BE00E9436076A
:1045C000C1FB882780F91F928F938CE29BE09F9319
:1045D0008F930E94CF078AE29BE00E9436078EE10C
:1045E0009BE00E943607C2FB882780F91F928F93B9
:1045F0008BE19BE09F938F930E94CF0789E19BE023
:104600000E94360780E19BE00E943607C3FBCC275F
:10461000C0F91F92CF938DE09BE09F938F930E94F0
:10462000CF078BE09BE00E9436070E940D1CEC0137
:1046300087EF9AE00E943607DF93CF9382EF9AE0EC
:104640009F938F930E94CF0780EF9AE00E943607D6
:1046500087ED9AE00E9436078C2F81701F928F930E
:1046600084ED9AE09F938F930E94CF078DB79EB7FA
:1046700080960FB6F8949EBF0FBE8DBF82ED9AE074
:104680000E9436078BEB9AE00E943607C1FB882711
:1046900080F91F928F9388EB9AE09F938F930E94EB
:1046A000CF0786EB9AE00E94360784EA9AE00E94E0
:1046B00036078D2F81701F928F9381EA9AE09F9326
:1046C0008F930E94CF078FE99AE00E9436078DE80A
:1046D0009AE00E943607D695D1701F92DF938AE840
:1046E0009AE09F938F930E94CF0788E89AE00E94F8
:1046F000360786E79AE00E943607C2FB882780F9D2
:104700001F928F9383E79AE09F938F930E94CF0726
:1047100081E79AE00E9436078FE59AE00E9436070B
:10472000C3FB882780F91F928F938CE59AE09F93B3
:104730008F930E94CF078AE59AE00E94360780E5B2
:104740009AE00E943607C4FB882780F91F928F9356
:104750008DE49AE09F938F930E94CF078BE49AE0B9
:104760000E94360789E39AE00E943607C5FB882736
:1047700080F91F928F9386E39AE09F938F930E9414
:10478000CF0784E39AE00E94360788E19AE00E940E
:104790003607C6FB882780F91F928F9385E19AE040
:1047A0009F938F930E94CF078DB79EB780960FB6C9
:1047B000F8949EBF0FBE8DBF83E19AE00E9436073A
:1047C0008BE09AE00E943607C7FBCC27C0F91F9206
:1047D000CF9388E09AE09F938F930E94CF0786E063
:1047E0009AE00E9436070F900F900F900F9045C0EF
:1047F000803109F4A5C020F48E3009F48BC0F8C0D4
:10480000863109F4B8C0893109F0F2C08DE298E030
:104810000E94360786EF97E00E9436078FED97E0FB
:104820000E94360789EA97E00E9436078EE797E0F4
:1048300084C08A32E1F060F4873209F4D5C028F4EC
:104840008E3108F4D5C08D51D0C0893269F1D0C005
:10485000833448F48A3308F0C5C0853309F4C4C0F2
:10486000883369F0C5C0833409F4BEC0C1C085E097
:104870009CE00E9436070E94A11CC1E0BEC083E6F6
:1048800098E05BC080913702817F8E7F80933702F2
:104890008CE398E00E94360781E09CE00E94360796
:1048A00081E080934702E9CF85EE9BE00E943607C6
:1048B0000E94A608E2CF80913702C82FC095C17030
:1048C000C0FB80F980933702CC2329F089ED9BE06F
:1048D0000E94360792C08CEC9BE00E9436078091C4
:1048E0003702897F877F80933702C7CF9091370245
:1048F00091FBCC27C0F981E0C827892FC0FB81F943
:1049000080933702CC2319F08FEB9BE029C081EB19
:104910009BE013C09091370292FBCC27C0F981E055
:10492000C827892FC0FB82F980933702CC2319F066
:1049300082EA9BE015C082E99BE00E9436079DCF8A
:104940009091370293FBCC27C0F981E0C827892FCB
:10495000C0FB83F980933702CC2351F086E89BE0BB
:104960000E9436078091370281608093370245C0EC
:1049700089E79BE0E2CF80E797E00E9436070E943C
:10498000B60F1F928F9386E597E09F938F930E94B7
:10499000CF07809114011F928F938FE397E09F932D
:1049A0008F930E94CF07809154021F928F938CE2C5
:1049B00097E09F938F930E94CF070E948B1D9F9338
:1049C0008F937F936F9385E197E09F938F930E94DE
:1049D000CF078DB79EB742960FB6F8949EBF0FBE15
:1049E0008DBF4BCF895301C080E00E94672245CF25
:1049F00087E79BE00E943607C0E08C2FDF91CF91C4
:104A0000089580E008950C9401258E518A3030F489
:104A1000E82FF0E0E757FE4F8081089580E0089589
:104A2000CF93C82F80914702813059F020F0823017
:104A300009F445C039C10E941C1B823209F036C1FD
:104A400004C00E941C1B823261F48C2F0E9403253B
:104A5000811104C08C2F0E9487222FC081E090E03A
:104A60002CC08C2F0E940125811126C0C431E1F099
:104A700070F4CB3081F0C031D1F40E942F2188E056
:104A800097E00E94360782E08093470215C0C93242
:104A900059F0C83361F48CE398E00E9436078CE04B
:104AA00097E00E94360708C01092470201C186E0D5
:104AB00097E00E943607FCC081E08170FBC0C432E1
:104AC00028F5CE3108F0C1C0CB30A1F1D0F4C73009
:104AD00009F0D0C08EE18093090182E38093080140
:104AE0008AE08093070184E18093060188E0809347
:104AF000030188E2809302018CEA95E00E94360768
:104B0000BCC0C33149F1C431C1F0B4C0CB3409F4E5
:104B1000A6C028F4C93289F0C83361F0ABC0C135F2
:104B200009F49BC0C23509F496C0CE3409F0A2C086
:104B30006AE09BC00E942F21A0C08091460288237A
:104B400019F01092460299C089EB95E00E94360751
:104B500081E080934702AEC083E995E00E9436076A
:104B600081E895E00E943607809109011F928F939A
:104B70008EE795E09F938F930E94CF078CE795E097
:104B80000E9436078AE695E00E9436078091080168
:104B90001F928F9387E695E09F938F930E94CF0794
:104BA00085E695E00E94360786E595E00E94360787
:104BB000809107011F928F9383E595E09F938F93D8
:104BC0000E94CF0781E595E00E94360780E495E0DA
:104BD0000E943607809106011F928F938DE395E026
:104BE0009F938F930E94CF078BE395E00E94360737
:104BF00086E295E00E943607809103011F928F9311
:104C000083E295E09F938F930E94CF0781E295E026
:104C10000E9436078AE095E00E94360780910201E3
:104C20001F928F9387E095E09F938F930E94CF0709
:104C300085E095E00E9436078DB79EB748960FB67F
:104C4000F8949EBF0FBE8DBF18C08C2F0E94052503
:104C50008093460212C061E003C061E006C06AE0D2
:104C6000809146020E94462108C0809146020E941F
:104C7000E92103C08AEA95E013C0809146028823A7
:104C800069F01F928F9384EA95E09F938F930E941F
:104C9000CF070F900F900F900F9004C081EA95E01E
:104CA0000E94360781E006C01092470280E002C0F1
:104CB00080E003CFCF9108958091530208959FB76C
:104CC000F89410924A029FBF90917902943009F0B3
:104CD00057C09091E9009F703091EC00232F217014
:104CE00030FD20E8922B23E02093E9002091EB0097
:104CF00020FF43C02091EE0027FF3FC020914802D3
:104D0000222321F02091E80025FF37C010924802AD
:104D100026E03091E80035FD15C03091790234303D
:104D200061F53091EB0035FD28C0215021F481E080
:104D30008093480222C0EFE9FFE03197F1F700C00D
:104D40000000E7CF8093F1008091E80085FD0AC064
:104D50008091E80080FFFCCF8091E8008E778093FF
:104D6000E80006C08FB7F89421E020934A028FBF75
:104D70009F709093E90080E008959F709093E90000
:104D80008FEF0895CF93DF9300D01F92CDB7DEB79A
:104D900090917902943019F589837B836A8382E04C
:104DA0008093E9008FEF9091E800815095FD06C057
:104DB00095ED9A95F1F700008111F5CF8091E8000B
:104DC00085FF0DC040E050E063E070E0CE01019649
:104DD0000E9439298091E8008E778093E8000F9037
:104DE0000F900F90DF91CF910895BC0184E00C9457
:104DF000C226BC0183E00C94C22622E02093E90085
:104E00002FEF3091E800215035FD06C035ED3A9581
:104E1000F1F700002111F5CF2091E80025FF0BC02C
:104E200040E050E066E070E00E9439298091E8009F
:104E30008E778093E8000895CF93DF9321E020934D
:104E4000E9002FEF3091E800215035FD06C035ED27
:104E50003A95F1F700002111F5CF2091E80025FFE8
:104E600014C0EC0140E050E068E070E00E94392995
:104E70008091E8008E778093E80088E0FE01ABE443
:104E8000B2E001900D928A95E1F7DF91CF910895FC
:104E900086E49CE00E94360780917802811109C067
:104EA0000E94CA2A0E94272B8091E200846080938E
:104EB000E200089582E49CE00E9436071092780296
:104EC00008958EE39CE00C9436078AE39CE00C94F2
:104ED000360786E39CE00E9436070C94451D20911E
:104EE00049022F5F822F62E30E94D62D992319F089
:104EF0002093490208951092490280914A02882322
:104F000071F180917902843041F58091E9008F70D0
:104F10002091EC00922F917020FD90E8892B93E076
:104F20009093E9009091EB0090FF14C09091EE00F7
:104F300097FF10C09091E80095FF03C01092F10018
:104F4000F9CF9091E80090FF05C09091E8009E771E
:104F50009093E8008F708093E90010924A020895C0
:104F600042E061EC81E00E94432A42E261EC82E08F
:104F70000E94432A42E261EC83E00C94432A809130
:104F80007B02833009F460C030F4813071F08230EC
:104F900009F499C008958A3009F485C08B3009F46A
:104FA0006BC0893009F0A7C020C080917A02813A95
:104FB00009F0A1C08091E800877F8093E80080918C
:104FC0007E0290917F02892B21F468E08BE492E0CD
:104FD00003C060E080E090E070E00E94842980914E
:104FE000E8008B778093E800089580917A028132FF
:104FF00009F081C080917E0290917F02029708F0B3
:105000007AC08091E800877F8093E8008091E80073
:1050100082FD05C0809179028111F8CF6CC020918A
:10502000F3008091F20090E0922B029729F4809196
:10503000F1008B7F813021F48091F1008093530245
:105040008091E8008B7753C080917A02813A09F011
:1050500052C080917E0290917F02892B09F04BC053
:105060008091E800877F8093E8008091E80080FFCE
:10507000FCCF8091140136C080917A028132D9F53B
:1050800080917E0290917F02892BA9F58091E800A2
:10509000877F8093E8000E94782A80917C02809329
:1050A00014010C94501580917A02813221F580917F
:1050B000E800877F8093E8000E94782A80917D0233
:1050C00080935402089580917A02813AA1F48091EC
:1050D000E800877F8093E8008091E80080FFFCCFA4
:1050E000809154028093F1008091E8008E77809344
:1050F000E8000C94782A089584B7877F84BF0FB6A0
:10510000F894A89580916000886180936000109267
:1051100060000FBE90E080E80FB6F89480936100C5
:10512000909361000FBE0E946A100E94CA2A0E94DA
:10513000272B8091E20084608093E2008FE596E265
:105140000E94D01B78940E94BB2D0E9470108AE0B0
:1051500091E00E94B10F85E29CE00E9436078091A9
:105160007902853089F481E29CE00E9436070E9432
:10517000131D80917702882391F30E94FA1C8823E3
:1051800071F30E942329EBCF0E94A0100E945E10B1
:105190000E945D10E4CF0C94CD28292F33272330B3
:1051A0003105C9F060F42130310581F0223031053C
:1051B00009F041C08BE590E022E73CE040C021329D
:1051C0003105E1F02232310531F135C082E190E064
:1051D0002DEC3CE034C099278130910549F028F04E
:1051E000029749F5EAE4FCE005C0EEE6FCE002C007
:1051F000EEE5FCE0849190E09F0121C063307105F1
:10520000D0F4660F771FFB01E456FE4F20813181F9
:1052100089E090E014C06330710568F4FB01EE0F83
:10522000FF1FEA56FE4F20813181FB01ED56FE4FF4
:10523000808190E004C080E090E020E030E0FA015E
:1052400031832083089580E189BD82E189BD09B45D
:1052500000FEFDCF8091D8008F7D8093D800809193
:10526000E00082608093E0008091E00081FDFCCF4F
:105270000895CF92DF92EF92FF920F931F93CF93F7
:10528000DF93EC018B017A010E94972A811133C0D0
:10529000E114F10439F0F70180819181081B190BA9
:1052A000C80FD91FC12CD12C0115110519F18091FE
:1052B000E80085FD16C08091E8008E778093E800B5
:1052C000E114F10449F0F70180819181C80ED91EE3
:1052D000D182C08285E00FC00E94972A882321F3E3
:1052E0000AC089918093F10001501109FFEFCF1A94
:1052F000DF0ADACF80E0DF91CF911F910F91FF900D
:10530000EF90DF90CF90089520918002309181023C
:105310002617370748F06115710539F42091E80028
:105320002E772093E80001C0B901FC0120E061154F
:10533000710579F1809179028823F1F18530F1F1DD
:105340008091E80083FD3CC08091E80082FD2EC082
:105350008091E80080FFEBCF2091F3008091F20074
:1053600090E0922B6115710551F08830910538F469
:1053700021912093F100615071090196F3CF21E052
:10538000089709F020E08091E8008E778093E8008C
:10539000CECF2111CFCF0AC080917902882361F04E
:1053A000853061F08091E80083FD0AC08091E800BB
:1053B00082FFF2CF80E0089582E0089583E00895AF
:1053C00081E00895209180023091810226173707ED
:1053D00048F06115710539F42091E8002E7720938B
:1053E000E80001C0B901FC0120E06115710591F1EF
:1053F00080917902882309F440C0853009F43FC0C8
:105400008091E80083FD3DC08091E80082FD2FC0BF
:105410008091E80080FFE9CF2091F3008091F200B5
:1054200090E0922B6115710559F08830910540F498
:1054300024912093F1003196615071090196F2CFC9
:1054400021E0089709F020E08091E8008E778093B2
:10545000E800CBCF2111CCCF0AC0809179028823FC
:1054600061F0853061F08091E80083FD0AC0809191
:10547000E80082FFF2CF80E0089582E0089583E0A3
:10548000089581E00895982F973068F59093E9008A
:10549000981739F07091EC002091ED005091F000D8
:1054A00003C0242F762F50E021FD02C09F5FECCF78
:1054B0003091EB003E7F3093EB003091ED003D7F6B
:1054C0003093ED003091EB0031603093EB0070933E
:1054D000EC002093ED005093F0002091EE0027FDAA
:1054E000E5CF80E008958F708093E90081E0089512
:1054F00080917A0287FF11C08091E80082FD05C08B
:10550000809179028111F8CF11C08091E8008B77EA
:105510000BC080917902882349F08091E80080FFD8
:10552000F8CF8091E8008E778093E800089520916D
:10553000E4003091E50095E64091EC00842F817005
:1055400040FF23C08091E80080FD1DC0809179025A
:10555000882399F0853099F08091EB0085FD11C08A
:105560004091E4005091E5002417350729F391504C
:1055700011F09A01E1CF84E0089582E0089583E07C
:10558000089581E0089580E008954091E80042FF89
:10559000DDCF08950E94382B0E94402BE0EEF0E012
:1055A000808181608083E8EDF0E080818F77808367
:1055B00019BCA7EDB0E08C918E7F8C9380818F7E9B
:1055C00080831092780208950F931F93CF93DF93F7
:1055D0000E94382B0E94402BC8EDD0E088818F7745
:1055E000888388818068888388818F7D888319BCBF
:1055F0001092790210927502109277021092760240
:1056000000EE10E0F80180818B7F808388818160CB
:10561000888342E060E080E00E94432AE1EEF0E00F
:1056200080818E7F8083E2EEF0E0808181608083E4
:10563000808188608083F80180818E7F808388816B
:1056400080618883DF91CF911F910F910895E8EDDC
:10565000F0E080818F7E8083E7EDF0E080818160E3
:10566000808384E082BF81E0809378020C94E42AF6
:10567000E8EDF0E080818E7F80831092E200089553
:105680001092DA001092E10008951F920F920FB667
:105690000F9211242F933F934F935F936F937F93B8
:1056A0008F939F93AF93BF93EF93FF938091E1000C
:1056B00082FF0BC08091E20082FF07C08091E10071
:1056C0008B7F8093E1000E946F278091DA0080FF3A
:1056D0001FC08091D80080FF1BC08091DA008E7FB0
:1056E0008093DA008091D90080FF0DC080E189BDF0
:1056F00082E189BD09B400FEFDCF81E0809379028B
:105700000E94482705C019BC109279020E945A27AE
:105710008091E10080FF19C08091E20080FF15C0F8
:105720008091E2008E7F8093E2008091E2008061B0
:105730008093E2008091D80080628093D80019BCE9
:1057400085E0809379020E9465278091E10084FFC3
:1057500030C08091E20084FF2CC080E189BD82E1ED
:1057600089BD09B400FEFDCF8091D8008F7D809364
:10577000D8008091E1008F7E8093E1008091E2006B
:105780008F7E8093E2008091E20081608093E2004E
:1057900080917502882311F084E007C08091E300B6
:1057A00087FD02C081E001C083E0809379020E94FE
:1057B00069278091E10083FF29C08091E20083FF87
:1057C00025C08091E100877F8093E10082E0809393
:1057D0007902109275028091E1008E7F8093E10042
:1057E0008091E2008E7F8093E2008091E2008061F0
:1057F0008093E20042E060E080E00E94432A8091D2
:10580000F00088608093F0000E946127FF91EF9183
:10581000BF91AF919F918F917F916F915F914F91C8
:105820003F912F910F900FBE0F901F9018951F92D0
:105830000F920FB60F9211242F933F934F935F93C4
:105840006F937F938F939F93AF93BF93CF93DF9388
:10585000EF93FF93C091E900CF708091EC00D82FB7
:10586000D17080FDD0E81092E9008091F000877F30
:105870008093F00078940E945B2C1092E900809154
:10588000F00088608093F000CD2BCF70C093E900CA
:10589000FF91EF91DF91CF91BF91AF919F918F9148
:1058A0007F916F915F914F913F912F910F900FBE1C
:1058B0000F901F9018951F93CF93DF93CDB7DEB74E
:1058C000AA970FB6F894DEBF0FBECDBFEAE7F2E0AD
:1058D0008091F100819322E0E238F207C9F70E943B
:1058E000BF278091E80083FF2EC180917A029091BA
:1058F0007B02492F50E04A30510508F024C1FA01DB
:10590000EC58FF4F0C94F62D803821F0823809F0C6
:105910001AC108C08091760290917702992389F08C
:1059200082600FC080917E028F70873008F00BC1BB
:105930008093E9008091EB0085FB882780F9109225
:10594000E9009091E800977F9093E8008093F10040
:105950001092F100D1C0282F2D7F09F0F4C08823C8
:1059600019F0823061F0EFC080917C02813009F043
:10597000EAC0933009F080E0809377022EC08091D6
:105980007C0281112AC080917E028F702FEF280F38
:10599000263008F0D8C08093E9002091EB0020FF6A
:1059A0001CC0933021F48091EB00806214C0909170
:1059B000EB0090619093EB0021E030E0A90102C080
:1059C000440F551F8A95E2F74093EA001092EA00CF
:1059D0008091EB0088608093EB001092E900809149
:1059E000E800877F8093E8000E94782AACC081118C
:1059F000AAC010917C021F778091E3008078812BF0
:105A00008093E3008091E800877F8093E8000E9404
:105A1000782A8091E80080FFFCCF8091E3008068C5
:105A20008093E300111102C082E001C083E0809303
:105A3000790289C08058823008F085C080917C024C
:105A400090917D028C3D53E0950779F583E08A8340
:105A50008AE289834FB7F894DE01139620E03EE096
:105A600051E2E32FF0E050935700E49120FF03C090
:105A7000E295EF703F5FEF708E2F90E0EA3010F00C
:105A8000C79601C0C0968D939D932F5F243149F72F
:105A90004FBF8091E800877F8093E8006AE270E062
:105AA000CE0101960E94842916C060917E027091F9
:105AB0007F02AE014F5F5F4F0E94CB28BC01892B54
:105AC00009F441C09091E800977F9093E8008981A4
:105AD0009A810E94E2298091E8008B778093E80008
