:100000000C94E1060C9428070C9428070C942807FC
:100010000C9428070C9428070C9428070C942807A4
:100020000C9428070C9428070C94452B0C94172C3F
:100030000C947A220C9428070C9428070C94280717
:100040000C9428070C9428070C9428070C94280774
:100050000C9428070C94D3220C9428070C9428079E
:100060000C9428070C9428070C9428070C94280754
:100070000C9428070C9428070C9428070C94280744
:100080000C9428070C9428070C9428070C94280734
:100090000C9428070C9428070C9428070C94280724
:1000A0000C9428070C9428070C9428074818481823
:1000B0007A187A18C718E518061A061AF01885195A
:1000C00096199619F619061A061AFF19B41AB41ACF
:1000D000C61AC61ABD1AC61AC61AC61AB41AB41A4D
:1000E000C21AC61AC61AC21A842CAB2CA32DAB2C6A
:1000F000A32DF72C1A2DA32D712D802D35001E0058
:100100001F00200021002200000023002400250001
:10011000260027002D002B0014001A0008001500EF
:10012000170000001C0018000C00120013002F0024
:10013000290004001600070009000A0000000B0057
:100140000D000E000F0033003400E1001D001B0005
:1001500006001900050028001100100036003700C5
:1001600038003000E000E300E200390001512C00CB
:100170004C002A002E002D00340013503100105086
:100180003A003B003C003D003E0000003F004000C4
:1001900041004200430044001250BE00BD00520026
:1001A000AA00A900000045004A0052004D000100CD
:1001B000460001000100500051004F00A80000005F
:1001C0000100500051004F0001000100010001003A
:1001D0000100010001000100010001000100010017
:1001E0000100010001000100010001008200010086
:1001F00001000100010001000100010001000100F7
:10020000105000000000000000000000000000008E
:1002100000000000000000000000000000000000DE
:1002200000000000000000000000000000000000CE
:1002300000000000000000000000000000000000BE
:1002400000000000000000000000000000000000AE
:10025000000000000000000000000000000000009E
:10026000000000000000000000000000000000008E
:10027000000000000000000000000000000000007E
:10028000005C1050000000000000000000000000B2
:10029000000000000000000000000000000000005E
:1002A00000005200000000000000000000004B00B1
:1002B00000000000000029000000500051004F0025
:1002C0000000000000004A004E004D000000000049
:1002D000E100000000000000000000002800000015
:1002E00000000000000000000000E000E300E20069
:1002F000000000002C004C002A000000000000005C
:100300000100000044454255473A20646973616228
:100310006C65642E0A0044454255473A20656E617B
:10032000626C65642E0A000A002530313662003A9C
:10033000200025303258000A722F632030313233CA
:100340003435363738394142434445460A006D6BEF
:100350005F776865656C5F74696D655F746F5F6D0D
:100360006178203D2025640A006D6B5F77686565C4
:100370006C5F6D61785F7370656564203D202564F6
:100380000A006D6B5F74696D655F746F5F6D617896
:10039000203D2025640A006D6B5F6D61785F73708E
:1003A000656564203D2025640A006D6B5F696E748D
:1003B000657276616C203D2025640A006D6B5F6478
:1003C000656C6179203D2025640A006D6B5F77685C
:1003D00065656C5F74696D655F746F5F6D617820D2
:1003E0003D2025640A006D6B5F776865656C5F6D05
:1003F00061785F7370656564203D2025640A006D37
:100400006B5F74696D655F746F5F6D6178203D200F
:1004100025640A006D6B5F6D61785F73706565645C
:10042000203D2025640A006D6B5F696E74657276ED
:10043000616C203D2025640A006D6B5F64656C6112
:1004400079203D2025640A000A00257500363A20EF
:10045000776865656C5F74696D655F746F5F6D610A
:10046000783A20000A00257500353A2077686565DE
:100470006C5F6D61785F73706565643A20000A0097
:10048000257500343A2074696D655F746F5F6D6126
:10049000783A20000A00257500333A206D61785FB4
:1004A00073706565643A20000A00257500323A20B1
:1004B000696E74657276616C286D73293A20000A42
:1004C00000257500313A2064656C6179282A313045
:1004D0006D73293A20000A092D2056616C756573E9
:1004E000202D0A004D3E004D25643E20003F007344
:1004F00065742064656661756C740A00433E200073
:1005000077686572652064656C74613A2063757202
:10051000736F723D25642C20776865656C3D25649A
:100520000A53656520687474703A2F2F656E2E77B4
:10053000696B6970656469612E6F72672F77696B8B
:10054000692F4D6F7573655F6B6579730A000A09D2
:100550002D204D6F7573656B6579202D0A455343CA
:100560002F713A09717569740A313A0964656C61D1
:1005700079282A31306D73290A323A09696E746517
:100580007276616C286D73290A333A096D61785F60
:1005900073706565640A343A0974696D655F746FD8
:1005A0005F6D61780A353A09776865656C5F6D61E2
:1005B000785F73706565640A363A09776865656CBB
:1005C0005F74696D655F746F5F6D61780A0A703A78
:1005D000097072696E742076616C7565730A643A8D
:1005E000097365742064656661756C74730A75704F
:1005F0003A092B310A646F776E3A092D310A706718
:1006000075703A092B31300A7067646F776E3A095A
:100610002D31300A0A7370656564203D2064656C75
:100620007461202A206D61785F7370656564202A8B
:100630002028726570656174202F2074696D655F74
:10064000746F5F6D6178290A003F004D3E200043C2
:100650003E20004C25640A0074696D65725F726506
:100660006164333228293A202530346C580A006BF3
:100670006579626F6172645F69646C653A202558C0
:100680000A006B6579626F6172645F70726F746F7C
:10069000636F6C3A2025580A00686F73745F6B654E
:1006A00079626F6172645F6C65647328293A2025F2
:1006B000580A000A092D20537461747573202D0A9D
:1006C000004743433A20352E342E30204156522DD8
:1006D0004C4942433A20322E302E30204156525F50
:1006E000415243483A20617672350A004F505449CE
:1006F0004F4E533A204C554641204D4F5553454B94
:1007000045592045585452414B455920434F4E536B
:100710004F4C4520434F4D4D414E442034303936E7
:100720000A004255494C443A20202846656220314F
:10073000372032303231290A005649443A20307885
:10074000464545442850726F6665742920504944D7
:100750003A203078363036322841747265757336F7
:100760003229205645523A203078303030310A0054
:100770000A092D2056657273696F6E202D0A000AD2
:10078000092D20436F6E736F6C65202D0A4553430E
:100790002F713A09717569740A6D3A096D6F757335
:1007A000656B65790A000A092D204D616769632030
:1007B0002D0A443A094465627567204D657373617B
:1007C000676520546F67676C650A583A094D617414
:1007D000726978204465627567204D6F64652054A6
:1007E0006F67676C65202D2053686F77206B657984
:1007F0007072657373657320696E206D61747269C0
:100800007820677269640A4B3A094B6579626F61B7
:10081000726420446562756720546F67676C652059
:100820002D2053686F77206B657970726573732024
:100830007265706F72740A4D3A094465627567207B
:100840004D6F75736520546F67676C650A563A097A
:1008500056657273696F6E0A533A09537461747501
:10086000730A433A09416374697661746520436F82
:100870006E736F6C65204D6F64650A46312D46318D
:10088000303A0953776974636820746F204C61793A
:10089000657220302D392028463130203D204C30E3
:1008A000290A302D393A0953776974636820746FC7
:1008B000204C6179657220302D390A4752415645E6
:1008C0003A0953776974636820746F204C617965C5
:1008D0007220302028616C7465726E617465290A1B
:1008E000423A094A756D7020746F20426F6F746CC4
:1008F0006F616465720A4553433A094A756D702009
:10090000746F20426F6F746C6F6164657220286130
:100910006C7465726E617465290A453A0950726992
:100920006E7420454550524F4D2053657474696E66
:1009300067730A4253504143453A09436C656172FB
:1009400020454550524F4D0A000A002575002E6E75
:100950006B726F3A20000A002575002E7377617064
:100960005F6261636B736C6173685F6261636B7319
:10097000706163653A20000A002575002E73776167
:10098000705F67726176655F6573633A20000A0085
:100990002575002E6E6F5F6775693A20000A002585
:1009A00075002E737761705F72616C745F7267752A
:1009B000693A20000A002575002E737761705F6C1C
:1009C000616C745F6C6775693A20000A00257500D8
:1009D0002E737761705F7263746C5F726775693ACA
:1009E00020000A002575002E737761705F6C6374B8
:1009F0006C5F6C6775693A20000A002575002E63EC
:100A00006170736C6F636B5F746F5F636F6E747232
:100A10006F6C3A20000A002575002E737761705FB5
:100A2000636F6E74726F6C5F636170736C6F636B16
:100A30003A20000A0025303258006B65796D6170EC
:100A40005F636F6E6669672E7261773A20000A00F5
:100A50002575002E6D6F7573653A20000A002575A7
:100A6000002E6B6579626F6172643A20000A00257E
:100A700075002E6D61747269783A20000A00257540
:100A8000002E656E61626C653A20000A00253032E6
:100A9000580064656275675F636F6E6669672E7282
:100AA00061773A20000A0025750064656661756CFF
:100AB000745F6C617965723A20003F000A6D6F7552
:100AC00073653A206F66660A000A6D6F7573653A42
:100AD000206F6E0A000A6B6579626F6172643A205A
:100AE0006F66660A000A6B6579626F6172643A200C
:100AF0006F6E0A000A6D61747269783A206F6666DB
:100B00000A000A6D61747269783A206F6E0A000AF1
:100B100064656275673A206F66660A000A646562FA
:100B200075673A206F6E0A000A0A4A756D70696E21
:100B30006720746F20626F6F746C6F616465722ED2
:100B40002E2E2000433E2000436C656172696E6763
:100B500020454550524F4D0A006565636F6E6669CA
:100B6000673A0A00556E69636F646520696E707537
:100B700074206D6F64652073657420746F3A20254E
:100B8000750A00556E69636F646520696E707574CF
:100B9000206D6F646520696E697420746F3A20253A
:100BA000750A000A002530325820006B6579626FA3
:100BB0006172645F7265706F72743A20000A00257A
:100BC000303258006B6579626F6172645F7365746F
:100BD0005F6C65643A2000290A002575002F002506
:100BE00075005D2800256400200025640020002594
:100BF000640020002564007C0025303258006D6FB1
:100C00007573656B6579205B62746E7C78207920E2
:100C10007620685D287265702F61636C293A205BCD
:100C2000005B735D004B6579626F61726420737461
:100C30006172742E0A005B575D005B535D005B526E
:100C40005D005B445D005B435D0012034100740086
:100C500072006500750073003600320000000E035C
:100C6000500072006F00660065007400000004030D
:100C7000090409025B00030100A0FA090400000155
:100C80000301010009211101000122400007058133
:100C90000308000A090401000103000000092111F2
:100CA0000100012281000705820320000A090402D5
:100CB00000020300000009211101000122220007A7
:100CC0000583032000010705030320000112011022
:100CD0000100000008EDFE62600100010200010653
:100CE00031FF0974A1010975150026FF00952075D3
:100CF0000881020976150026FF00952075089102EB
:100D0000C005010902A10185020901A10005091917
:100D100001290515002501950575018102950175CB
:100D20000381010501093009311581257F9502757F
:100D300008810609381581257F950175088106050A
:100D40000C0A38021581257F950175088106C0C0FF
:100D500005010980A101850319012AB700150126A3
:100D6000B700950175108100C0050C0901A101852E
:100D70000419012AA002150126A00295017510810F
:100D800000C005010906A101050719E029E71500C2
:100D900025019508750181029501750881010507F6
:100DA000190029FF150026FF00950675088100052A
:100DB00008190129059505750191029501750391A1
:100DC00001C011241FBECFEFDAE0DEBFCDBF04B6F5
:100DD00003FE27C08091820290918302A091840239
:100DE000B09185028730904BA740B04BD1F4109260
:100DF000820210928302109284021092850214BE25
:100E000084B7877F84BF0FB6F894A895809160005F
:100E1000886180936000109260000FBEE0E0F8E30C
:100E2000099511E0A0E0B1E0E8EAFCE502C0059018
:100E30000D92A23AB107D9F722E0A2EAB1E001C0CF
:100E40001D92A238B207E1F70E947C280C94522E22
:100E50000C940000FF93EF93E091A201F091A301A5
:100E6000309709F00995EF91FF910895FC01859164
:100E7000803011F0EFDFFBCF0895FF27E0E230E292
:100E800047FF0CC0419597FF09C0EDE26095709552
:100E900080959095611D711D811D911D27FF02C0D8
:100EA000219530E350E2AA27660F771F881F991F0C
:100EB000AA1FA41710F0A41B63955A95A9F7AA308E
:100EC00008F0A95FA05DAF93F395611571058105E9
:100ED000910541F7ED3211F4EF93F395F21718F401
:100EE0003F93F395FBCF8F91B5DFFA95E1F7089526
:100EF000E991F9918591803021F0853219F0AADFCE
:100F0000F9CF089520E0E89455915532C1F350335C
:100F100011F4689455915A3348F4505390F3220FCA
:100F2000022E220F220F200D250FF4CF0EF4219553
:100F300089919991533619F3533729F1533559F162
:100F4000BC0188279927E8945C3621F4899199910E
:100F500068945591543639F446EF7EF077FF0DC012
:100F60008FEF9FEF0AC055374AE039F0583540E11E
:100F700021F0523642E009F00895FF93EF937DDFB0
:100F8000EF91FF91B7CFFF93EF93FC0181918030F8
:100F9000B9F360DFFBCFFF93EF9368DFF1CFDF930F
:100FA000CF93CDB7DEB72596A3DFCF91DF9108951C
:100FB0009C013A9521153F4138F5DC01AA27B27012
:100FC000AC01442754709C012227387094FF0FC055
:100FD00090FF02C080E101C080E0AB2B09F080628D
:100FE000452B09F08064232B69F080680BC0892FA2
:100FF0008170AB2B09F08260452B09F08460232BB4
:1010000009F08860FB0109940895CF93DF93EC0108
:10101000805E9109089710F0209719F464E078E158
:1010200002C06AE77AE1CE010E94D8078C2FDF91D7
:10103000CF910C94DA16CF93DF93EC010E948917BD
:10104000CE01805E9109089710F0209719F46BE0AB
:1010500078E102C061E87AE1CE01DF91CF910C9492
:10106000D807CF93DF93EC010E940508CE01DF91F2
:10107000CF910C941B0881E0089581E008950C94B1
:101080003D0808950C9441081F93CF93DF9300D03F
:1010900000D01F92CDB7DEB749835A836B8330915E
:1010A000BE0189819A81311114C0662359F022232F
:1010B00049F00E94ED1F182F682F89819A810E94A4
:1010C000961F03C00E94C11F182F69817A81812F4A
:1010D00004C00E94ED1F69817A810F900F900F90DC
:1010E0000F900F90DF91CF911F910C944D09FC014F
:1010F000262F408151816281738184810C94440840
:10110000CF93DF93EC0160E00E947708BE01DF918E
:10111000CF910C9442080E942721811102C00E94A5
:10112000CE210E9413120C94B20B0C94AE0B282FFC
:101130002F7041F0822F90E02A3010F44D960895E0
:101140000697089587E290E0089508950E94A21AF4
:101150000E94A5082FEF84E39CE02150804090403E
:10116000E1F700C000000C94F9220F931F93CF9376
:10117000DF93EC0161E00E9477088C01BE010E94C0
:101180003F08882309F449C0BE01C8010E94C61265
:10119000882309F442C0BE01C8010E945513882368
:1011A000E1F1BE01C8010E94A7138823B1F1BE017D
:1011B000C8010E94D214882381F18A81882331F1E9
:1011C00001308CE5180751F00F3D8CE51807D9F078
:1011D00001151C45D9F40E94A6081FC08091390250
:1011E000C82FC095C170C0FB80F980933902CC2311
:1011F00029F086E193E00E9436070FC084E093E077
:101200000E9436070BC00E94CE2107C0CE01DF919D
:10121000CF911F910F910C943B08C0E08C2FDF9170
:10122000CF911F910F9108958295982F937344E069
:10123000949F900111248C7C86958695282B822F73
:101240008575880F2A7A2695822B0895CF93DF9390
:10125000D92F0E941409C82F8D2F0E9414092C2FFA
:1012600030E0322F2227A901482BCA01DF91CF910C
:10127000089508950C94390981E008950C943C096F
:10128000CF93C82F0E943A098C2F0E943E09CF911C
:10129000089580E090E00895089521E4829FC001C0
:1012A0001124FC012DE0729FE00DF11D1124E60FC9
:1012B000F11DEE0FFF1FE450FF4F859194910895AB
:1012C000880F991FFC01E95DFC4F85919491089569
:1012D000CF93DF930E944D090E94800AEC01811593
:1012E000904508F041C0C11580E4D80708F0D1C08E
:1012F000C83ED10510F5C03ED10508F0FDC0C83A82
:10130000D10578F4C53AD10508F0A2C0C130D105A5
:1013100009F4F2C008F4EEC0C430D10508F0ECC006
:10132000E9C0CF3BD10508F49BC0C03CD10508F40F
:10133000E1C0CE01805C91099EC0C11590E2D90741
:1013400058F4C11521E0D20708F0D6C0C03FD1053E
:1013500008F4D0C0D065D0C0C11580E3D80708F02C
:101360008EC0CE019F7087C0C11595E5D90708F0E2
:1013700043C0C11524E5D20708F0A2C0C11582E51B
:10138000D80708F5C11591E5D90708F085C0CE0149
:1013900074E0969587957A95E1F783709C2F93700A
:1013A00021E030E002C0220F331F9A95E2F73C683B
:1013B000382BCF70C695C69580E2C89FE0011124F6
:1013C000C22BD32B99C09E01237033278C2F869577
:1013D0008695C115D34508F064C0C1E0D0E002C0D5
:1013E000CC0FDD1F2A95E2F720E2829FC001112475
:1013F000C82BD92BDC6880C0C11529E5D207A0F421
:10140000C11588E5D80708F060C0C11596E5D90771
:1014100008F070C08C2F0E94140B8F71C82FD0E081
:10142000DC2FCC27D06268C0C1152AE5D20708F4AA
:1014300051C0CE0190568115904208F05BC08D2FAF
:101440008F710E94140BDD27D0628F71D82B54C08E
:10145000C55AD0E0CD5BDE4FC881D0E0D0644CC02F
:10146000C85AD0E0CC0FDD1FCB5EDE4F0990D8818B
:10147000C02DD46441C00E946009EC013DC0CE0182
:101480009927D3FF03C0EC01D86C36C0EC01D06CB7
:1014900033C0DF70D06A30C0DC2FCC27C16FD06A78
:1014A0002BC0C1E0D0E002C0CC0FDD1F2A95E2F7CF
:1014B00020E2829FC0011124C82BD92BDA681CC0FE
:1014C000DC2FCC27C46FD06A17C0DC2FCC27C06FAD
:1014D000D06A12C08C2F8F700E94140B94E0D695A6
:1014E000C7959A95E1F7CF70D0E0DC2FCC27D06973
:1014F000C82B02C0C0E0D0E0CE01DF91CF910895AB
:101500008238910569F1B0F48133910509F46DC019
:1015100048F48932910509F463C08A32910509F4CF
:1015200069C008958533910509F455C08933910543
:10153000B9F00895833E910569F138F4803E910534
:10154000B1F0823E910509F10895863E9105A9F119
:10155000873E9105B9F1843E910509F064C023C02E
:101560002091730220FD4FC021FD4DC00895809150
:10157000730280FD44C08091740280FF44C080915A
:10158000730284FD42C083EE4DC08091730282FFDE
:1015900038C0F5CF8091730282FD33C08091740210
:1015A00080FD31C0ECCF8091740281FF32C0809108
:1015B000730284FD2AC087EE35C08091730283FFD9
:1015C00026C0F5CF8091730283FD21C08091740203
:1015D00081FD1FC0ECCF8091730285FD1CC01DC032
:1015E0008091730285FD19C016C08091730286FD3B
:1015F00016C017C08091730286FD13C010C089E326
:1016000011C082EE0FC080EE0DC080E00BC086EEF0
:1016100009C084EE07C089E205C085E303C08AE201
:1016200001C081E390E008959091730292FF0DC094
:10163000282F2871283019F4877F846006C0282F4E
:101640002471243011F48B7F886093FF0DC0282F04
:101650002871283119F4877E846106C0282F2471EF
:10166000243111F48B7E88612091740220FF0DC01B
:10167000382F3871383019F4877F816006C0382FD1
:101680003171313011F48E7F886021FF0DC0282F19
:101690002871283119F4877E816106C0282F2171B5
:1016A000213111F48E7E886194FD877E0895E82FA4
:1016B000F0E0EE0FFF1FE15AFD4F80819181089508
:1016C000CF92DF92EF92FF920F931F93CF93DF930E
:1016D00087E393E00E9436078FE5E82E82E0F82E3C
:1016E000C0E0D0E092E3C92E93E0D92E09E213E0E6
:1016F000DF93CF93DF92CF920E94CF078FE293E0E8
:101700000E943607F701819191917F010E9426097D
:101710009F938F931F930F930E94CF0787E293E0CD
:101720000E94360721968DB79EB708960FB6F8949B
:101730009EBF0FBE8DBFC530D105D1F6DF91CF91D1
:101740001F910F91FF90EF90DF90CF90089580EA66
:101750008A95F1F7089508950C94AB0B0C94AC0B9B
:101760000C94AB0B0C94B00BF894E82FE295EF704F
:10177000F0E031A1282F2F7081E090E001C0880FA8
:101780002A95EAF7982F9095932391A392A1892BFC
:1017900082A3789408950F931F93CF93DF93C6E4A9
:1017A000D1E003E511E089910E94B40B0C171D07ED
:1017B000D1F782E90E94B40B83E90E94B40B81E95E
:1017C0000E94B40B80E90E94B40B84E90E94B40B20
:1017D000E5E5F2E0AFE5B2E0119211921D921D92A3
:1017E00082E0EF35F807C1F785E00E94960CDF91A3
:1017F000CF911F910F910C948B084F925F927F9223
:101800008F929F92AF92BF92CF92DF92EF92FF9210
:101810000F931F93CF93DF9396E4E92E91E0F92E77
:1018200000E010E0C0E0CC24C394D12C3FE5A32E0F
:1018300032E0B32E4701D7018C91F894E82FE2955E
:10184000EF70F0E021A18F70A60102C0440F551F78
:101850008A95E2F7CA01922F982B91A392A18095C5
:10186000892382A378940E94A70BA601002E02C0B0
:10187000440F551F0A94E2F7BA0160957095E5E5AB
:10188000F2E083E5482E81E0582ED0E020813181BE
:10189000D2017D902D01872D82958F7090E0DC0123
:1018A00090968C9190E0B72DBF7002C0959587956A
:1018B000BA95E2F780FD04C0C901842B952B03C0C3
:1018C000C901862397232817390719F0918380834C
:1018D000D1E03296AE16BF06C9F6EFEFEE1AFE0A59
:1018E000D4018C910E94B40BCD2B0F5F1F4F0D3094
:1018F000110509F09FCF2C2F45E06FE572E085E5DB
:1019000092E00E94970C0E9495088C2FDF91CF9156
:101910001F910F91FF90EF90DF90CF90BF90AF900D
:101920009F908F907F905F904F9008950895FF92C1
:101930000F931F93CF93DF93F82E092F162FD72FD6
:10194000C42F222349F081E08093A6010E94AC229B
:101950009093A5018093A4018091A6018823D9F0DA
:101960008091A4019091A5010E94C422069798F04D
:10197000EF2DF02FA12FBD2F80E090E04C2F50E0F5
:101980008417950734F4219131912D933D9301965D
:10199000F7CF1092A601DF91CF911F910F91FF9089
:1019A00008958EE495E00E9436071F9281E08F93A0
:1019B0001F9285E08F9380E095E09F938F930E9424
:1019C000CF070F900F900F900F900F900F900895EA
:1019D0008330E9F128F4813061F0823009F1089513
:1019E000853009F462C008F449C0863009F474C037
:1019F000089580910901262F30E0280F311D2F3FD7
:101A0000310524F4680F6093090103C08FEF8093C0
:101A10000901809109011F928F9389E394E072C0BC
:101A200080910801262F30E0280F311D2F3F31050E
:101A300024F4680F6093080103C08FEF80930801BE
:101A4000809108011F928F9387E294E05BC08091A0
:101A50000701262F30E0280F311D2F3F310524F4D8
:101A6000680F6093070103C08FEF80930701809197
:101A700007011F928F9384E194E044C08091060196
:101A8000262F30E0280F311D2F3F310524F4680F39
:101A90006093060103C08FEF8093060180910601D9
:101AA0001F928F938FEF93E02DC080910301262F1B
:101AB00030E0280F311D2F3F310524F4680F60936B
:101AC000030103C08FEF80930301809103011F92F4
:101AD0008F9386EE93E016C080910201262F30E0AE
:101AE000280F311D2F3F310524F4680F6093020148
:101AF00003C08FEF80930201809102011F928F93A8
:101B00008BEC93E09F938F930E94CF070F900F90E1
:101B10000F900F900895833081F128F4813059F0AF
:101B20008230D1F00895853009F449C0B8F186308B
:101B300009F456C0089580910901681720F4861BA6
:101B40008093090102C010920901809109011F923E
:101B50008F938CEB93E054C080910801681720F4B8
:101B6000861B8093080102C0109208018091080131
:101B70001F928F938AEA93E043C080910701681710
:101B800020F4861B8093070102C010920701809108
:101B900007011F928F9387E993E032C0809106017D
:101BA000681720F4861B8093060102C0109206017C
:101BB000809106011F928F9382E893E021C080916B
:101BC0000301681720F4861B8093030102C0109262
:101BD0000301809103011F928F9389E693E010C067
:101BE00080910201681720F4861B8093020102C0D5
:101BF00010920201809102011F928F938EE493E074
:101C00009F938F930E94CF070F900F900F900F908C
:101C10000895CF93C82F1F928F9383E596E09F93EB
:101C20008F930E94CF0781E090E0A0E0B0E0BC017C
:101C3000CD0104C0660F771F881F991FCA95D2F780
:101C40000E94981E0F900F900F900F90CF910C94C0
:101C5000A21ACF93DF938B3109F4EAC108F08BC14C
:101C60008B3009F4AEC108F065C1863009F4ACC10F
:101C700020F4853009F4BAC15DC2873009F4BDC1D2
:101C8000883009F057C289E59BE00E9436078AEA4E
:101C90009AE00E9436070E9436211F928F9387EAAE
:101CA0009AE09F938F930E94CF0785EA9AE00E9463
:101CB00036070E943221C82F82E99AE00E94360737
:101CC0001F92CF938DE89AE09F938F930E94CF0746
:101CD0008BE89AE00E94360781E89AE00E94360776
:101CE0008C2F81701F928F938EE79AE09F938F9332
:101CF0000E94CF078CE79AE00E94360782E79AE0BD
:101D00000E943607C1FB882780F91F928F938FE6C8
:101D10009AE09F938F930E94CF078DE69AE00E94EE
:101D2000360781E69AE00E943607C2FB882780F9D1
:101D30001F928F938EE59AE09F938F930E94CF0717
:101D40008CE59AE00E94360783E59AE00E94360708
:101D5000C3FBCC27C0F91F92CF9380E59AE09F93F5
:101D60008F930E94CF078EE49AE00E9436070E946C
:101D70003A21EC018AE39AE00E943607DF93CF9381
:101D800085E39AE09F938F930E94CF0783E39AE0C5
:101D90000E9436078AE19AE00E9436078C2F8170F4
:101DA0001F928F9387E19AE09F938F930E94CF07B2
:101DB0008DB79EB780960FB6F8949EBF0FBE8DBFAD
:101DC00085E19AE00E9436078EEF99E00E9436077F
:101DD000C1FB882780F91F928F938BEF99E09F9327
:101DE0008F930E94CF0789EF99E00E94360787EE14
:101DF00099E00E9436078D2F81701F928F9384EE99
:101E000099E09F938F930E94CF0782EE99E00E9402
:101E1000360780ED99E00E943607D695D1701F9263
:101E2000DF938DEC99E09F938F930E94CF078BEC0B
:101E300099E00E94360789EB99E00E943607C2FBC1
:101E4000882780F91F928F9386EB99E09F938F9359
:101E50000E94CF0784EB99E00E94360782EA99E05E
:101E60000E943607C3FB882780F91F928F938FE962
:101E700099E09F938F930E94CF078DE999E00E948C
:101E8000360783E999E00E943607C4FB882780F96A
:101E90001F928F9380E999E09F938F930E94CF07C1
:101EA0008EE899E00E9436078CE799E00E94360799
:101EB000C5FB882780F91F928F9389E799E09F934C
:101EC0008F930E94CF0787E799E00E9436078BE542
:101ED00099E00E943607C6FB882780F91F928F93EE
:101EE00088E599E09F938F930E94CF078DB79EB7A7
:101EF00080960FB6F8949EBF0FBE8DBF86E599E021
:101F00000E9436078EE499E00E943607C7FBCC2773
:101F1000C0F91F92CF938BE499E09F938F930E9417
:101F2000CF0789E499E00E9436070F900F900F9039
:101F30000F9045C0803109F4A5C020F48E3009F41B
:101F40008BC0F8C0863109F4B8C0893109F0F2C0FD
:101F500080E797E00E94360789E397E00E94360702
:101F600082E297E00E9436078CEE96E00E943607E8
:101F700081EC96E084C08A32E1F060F4873209F4A3
:101F8000D5C028F48E3108F4D5C08D51D0C0893227
:101F900069F1D0C0833448F48A3308F0C5C0853372
:101FA00009F4C4C0883369F0C5C0833409F4BEC0E5
:101FB000C1C088E49BE00E9436070E94CE21C1E0A8
:101FC000BEC086EA97E05BC080913902817F8E7F38
:101FD000809339028FE797E00E94360784E49BE004
:101FE0000E94360781E08093A801E9CF88E29BE058
:101FF0000E9436070E94A608E2CF80913902C82FBE
:10200000C095C170C0FB80F980933902CC2329F0C0
:102010008CE19BE00E94360792C08FE09BE00E941B
:10202000360780913902897F877F80933902C7CF35
:102030009091390291FBCC27C0F981E0C827892F04
:10204000C0FB81F980933902CC2319F082E09BE038
:1020500029C084EF9AE013C09091390292FBCC27FB
:10206000C0F981E0C827892FC0FB82F9809339022B
:10207000CC2319F085EE9AE015C085ED9AE00E9418
:1020800036079DCF9091390293FBCC27C0F981E0B0
:10209000C827892FC0FB83F980933902CC2351F0E4
:1020A00089EC9AE00E943607809139028160809322
:1020B000390245C08CEB9AE0E2CF83EB96E00E94B8
:1020C00036070E9408151F928F9389E996E09F9327
:1020D0008F930E94CF07809114011F928F9382E803
:1020E00096E09F938F930E94CF07809154021F9296
:1020F0008F938FE696E09F938F930E94CF070E9465
:10210000B8229F938F937F936F9388E596E09F9378
:102110008F930E94CF078DB79EB742960FB6F89463
:102120009EBF0FBE8DBF4BCF895301C080E00E9480
:10213000090E45CF8AEB9AE00E943607C0E08C2F4B
:10214000DF91CF91089580E008950C94A3108E51F3
:102150008A3030F4E82FF0E0E85AFE4F808108958D
:1021600080E00895CF93C82F8091A801813059F065
:1021700020F0823009F445C039C10E946E208232BD
:1021800009F036C104C00E946E20823261F48C2FA7
:102190000E94A510811104C08C2F0E94290E2FC00F
:1021A00081E090E02CC08C2F0E94A310811126C0EA
:1021B000C431E1F070F4CB3081F0C031D1F40E9431
:1021C000D10C8BE496E00E94360782E08093A80150
:1021D00015C0C93259F0C83361F48FE797E00E9407
:1021E00036078FE496E00E94360708C01092A801D7
:1021F00001C189E496E00E943607FCC081E081704D
:10220000FBC0C43228F5CE3108F0C1C0CB30A1F1FB
:10221000D0F4C73009F0D0C08EE18093090182E389
:10222000809308018AE08093070184E1809306018E
:1022300088E08093030188E2809302018FEE94E0AE
:102240000E943607BCC0C33149F1C431C1F0B4C0EB
:10225000CB3409F4A6C028F4C93289F0C83361F040
:10226000ABC0C13509F49BC0C23509F496C0CE3469
:1022700009F0A2C06AE09BC00E94D10CA0C080916E
:10228000A701882319F01092A70199C08CEF94E060
:102290000E94360781E08093A801AEC086ED94E0ED
:1022A0000E94360784EC94E00E9436078091090171
:1022B0001F928F9381EC94E09F938F930E94CF079E
:1022C0008FEB94E00E9436078DEA94E00E94360777
:1022D000809108011F928F938AEA94E09F938F93D5
:1022E0000E94CF0788EA94E00E94360789E994E0CB
:1022F0000E943607809107011F928F9386E994E030
:102300009F938F930E94CF0784E994E00E94360741
:1023100083E894E00E943607809106011F928F9314
:1023200080E894E09F938F930E94CF078EE794E01C
:102330000E94360789E694E00E94360780910301E7
:102340001F928F9386E694E09F938F930E94CF070E
:1023500084E694E00E9436078DE494E00E943607FC
:10236000809102011F928F938AE494E09F938F9350
:102370000E94CF0788E494E00E9436078DB79EB78D
:1023800048960FB6F8949EBF0FBE8DBF18C08C2F15
:102390000E94A7108093A70112C061E003C061E012
:1023A00006C06AE08091A7010E94E80C08C08091F5
:1023B000A7010E948B0D03C08DEE94E013C08091A5
:1023C000A701882369F01F928F9387EE94E09F9373
:1023D0008F930E94CF070F900F900F900F9004C023
:1023E00084EE94E00E94360781E006C01092A801B6
:1023F00080E002C080E003CFCF910895CF93DF93B8
:1024000097FF0DC0FB012281222349F0EC010E94BD
:102410005212CE019F770E94A9120E948B1281E076
:10242000DF91CF9108958CE090E00E94102E90E013
:10243000A0E0B0E08093690290936A02A0936B02DF
:10244000B0936C028091390280FF0EC080916902C6
:102450001F928F9383E89BE09F938F930E94CF07F7
:102460000F900F900F900F900895609169028CE08B
:1024700090E00C941E2E809369020E943512809188
:10248000390280FF0EC0809169021F928F9384E60B
:102490009BE09F938F930E94CF070F900F900F9018
:1024A0000F9008950E9414158695817080936E0296
:1024B00090916902913029F4882319F089E30E94F0
:1024C000F1170E946E2080936D020E9481208091FE
:1024D0006902813071F048F0823081F08430A1F4DB
:1024E00086EE0E94F11788E10DC082EE0E94DA1696
:1024F0000BC088E193E00E94310806C082EE0E9482
:10250000DA1687E50E94F1178FE39CE90197F1F74E
:1025100000C00000089580916902813039F078F0A0
:10252000823069F0843089F488E20DC08CE20E9428
:10253000F11780916E02882341F089E304C082EE96
:102540000E94891702C00E94F11780916D020C94BD
:102550007E200F931F93CF93DF938C01CCE0D0E0CC
:10256000C8010C2E02C0969587950A94E2F78F70E9
:102570000E9497080E9431082497CC3F8FEFD8071C
:1025800079F7DF91CF911F910F9108950F931F93CA
:10259000CF93DF93EC018B01FB018281882351F003
:1025A0000E946E20CE01825E9C458530910510F41C
:1025B0000E943B12B801CE01DF91CF911F910F9184
:1025C0000C94FE110F931F93CF93DF93C42FD22F40
:1025D000FC0182818823C9F04093AB010E94AC22A8
:1025E0009093AA018093A90180E28C0F883008F0B3
:1025F00057C0C77081E001C0880FCA95EAF7DF9124
:10260000CF911F910F910C9404188091AB01481346
:1026100030C08091A9019091AA010E94C422883CF7
:10262000910538F510E21D0FCD17B9F080E28C0F3F
:10263000883040F4C77081E001C0880FCA95EAF77E
:102640000E940B18183028F581E09D2F977001C06B
:10265000880F9A95EAF70E940418802F0E94F117BC
:102660001830F0F4D77081E001C0880FDA95EAF7EE
:102670000AC080E28C0F883098F4C77081E001C0F6
:10268000880FCA95EAF7DF91CF911F910F910C94B3
:102690000B18802FDF91CF911F910F910C94F117A0
:1026A000DF91CF911F910F9108950F939C01CB0162
:1026B000243F4CE5340731F188F4293DFCE53F0720
:1026C000D9F02A3D4CE5340779F1283D3C45A9F580
:1026D00006E221EE41EE68ED7CE52BC0263FFCE5ED
:1026E0003F07E1F0A8F0273F3C4539F507E225EE2A
:1026F00046EE67EF7CE51DC007E225EE45EE69ED8D
:102700007CE517C006E221EE40EE64EF7CE511C0E7
:1027100007E225EE44EE65EF7CE50BC006E221EE14
:1027200042EE66EF7CE505C008E221E045EE6AED89
:102730007CE50E94E21280E008C0FC0182818823CF
:1027400019F01092AB0101C081E00F910895CF9371
:10275000DF93EC01FB018281882309F41FC1C230A1
:10276000FCE5DF0708F41BC1C6319CE5D90738F04A
:102770009E012B5F3C452930310508F010C10E94B5
:102780003A219093740280937302C031ECE5DE0726
:1027900009F4C3C008F041C0C8308CE5D80709F47B
:1027A0009AC0F0F4C430ECE5DE0709F487C068F4A1
:1027B000C2308CE5D80709F477C0C330DC4509F096
:1027C000E3C080917302826076C0C630ECE5DE071C
:1027D00009F46EC008F07BC08091730288606BC002
:1027E000CC308CE5D80709F485C068F4CA30ECE534
:1027F000DE0709F474C008F079C00E94A21A809123
:102800007302806858C0CE308CE5D80709F476C0D2
:1028100008F07FC0809173028BC0CC3FECE5DE07EF
:1028200009F44FC018F5C3318CE5D80709F47DC011
:1028300078F4C131ECE5DE0709F473C0C231DC4540
:1028400009F0A2C00E94A21A809173028F7733C050
:10285000C5318CE5D80709F472C008F486C0CB3FB7
:10286000DC4509F091C0809174023EC0C115FDE5C0
:10287000DF0709F45FC058F4CE3F9CE5D90709F49F
:1028800044C008F43FC08091740282602DC0C23001
:10289000FDE5DF0709F475C008F45DC0C330DD4510
:1028A00009F072C080E06EC080917302816003C045
:1028B0008091730280618093730266C0809173027D
:1028C00011C0809174028260809374025DC0809117
:1028D00073028062F0CF809173028064ECCF8091AC
:1028E000730288608460E7CF8160EECF80917302CD
:1028F0008E7FE1CF809173028D7FDDCF8091730257
:10290000877FD9CF8091740218C0809174028D7F27
:10291000DBCF809173028F7ECECF809173028F7D4B
:10292000CACF809173028F7BC6CF80917302877F5D
:102930008B7FC1CF809174028D7F8E7FC5CF8091B8
:10294000730282FB222720F991E0922790FB82F903
:1029500090FB83F9B0CF80917402982F909591707D
:102960008E7F892B90FB81F9AFCF0E94A21A8091B4
:10297000730287FB222720F991E0922790FB87F9C9
:102980009ACF81E00E94D0218091730290917402CD
:102990000E944B210E94A21A80E001C081E0DF91D9
:1029A000CF910895CF93DF9386319C4541F5EB019C
:1029B0000E946E20982F8A812091000130910101A0
:1029C000882379F09A7A81E009F480E08093AC0161
:1029D000911102C069E201C065E3C9010E9417229A
:1029E0000AC08091AC01811102C069E201C065E3B7
:1029F000C9010E9419220E94BF2080E001C081E02D
:102A0000DF91CF9108959093B2018093B101089521
:102A1000E091B101F091B201309721F00190F08185
:102A2000E02D099480E00895E091B101F091B201A8
:102A3000309711F480E008950190F081E02D099520
:102A40000895EF92FF920F931F93CF93DF93E0913E
:102A5000B101F091B2013097B1F18C010280F381A4
:102A6000E02D09958091390282FF2DC080FF04C0BE
:102A70008BEA9BE00E943607E80118E085EAE82E21
:102A80008BE0F82E8091390280FF0BC088811F9265
:102A90008F93FF92EF920E94CF070F900F900F90AD
:102AA0000F90115021961111EDCF8091390280FFC6
:102AB0000AC083EA9BE0DF91CF911F910F91FF90B5
:102AC000EF900C943607DF91CF911F910F91FF90FB
:102AD000EF900895E091B101F091B201309739F093
:102AE00022E0DC012C930480F581E02D0994089507
:102AF0002091AF013091B0012817390771F0909300
:102B0000B0018093AF01E091B101F091B201309733
:102B100021F00680F781E02D099408952091AD0100
:102B20003091AE012817390771F09093AE01809370
:102B3000AD01E091B101F091B201309721F0008434
:102B4000F185E02D0994089585B7806885BF85B724
:102B5000806885BF089581E008950C94AB150895B1
:102B60000C94AF150C94AF150C94B2150C94AF15D2
:102B70000C94B6150C94AF150E94A4150E94BA15BA
:102B80000C94B8150E94A3220E94CB0B0E940A232A
:102B90000C94B415CF93C82F8091390282FF1EC0C8
:102BA00080FF04C084EC9BE00E94360780913902CC
:102BB00080FF0CC01F92CF938FEB9BE09F938F936E
:102BC0000E94CF070F900F900F900F9080913902C5
:102BD00080FF04C08DEB9BE00E9436078C2FCF91C5
:102BE0000C9440097F928F929F92AF92BF92CF92A6
:102BF000DF92EF92FF920F931F93CF93DF93CDB7A6
:102C0000DEB72A970FB6F894DEBF0FBECDBF0E9485
:102C1000B0150E94AF150E94FD0B0E94AD158111E9
:102C200011C08FEF89838A831B820E94AC2281604E
:102C3000782F9D838C8349815A816B818D810E947D
:102C4000A6164FC044EBA42E41E0B42E00E010E0E5
:102C5000702E802F0E94570B6C01F501819091908E
:102C60005F01882699268114910431F40F5F1F4F6C
:102C70000530110569F7D5CF8091390281FD0E9499
:102C8000600B80E0EE24E394F12C94012E213F218F
:102C9000232B09F18E837F82CE20DF2081E0CD2897
:102CA00009F480E088870E94AC228160782F9A879F
:102CB00089874E815F8168858A850E94A616000FEC
:102CC000111FF801EC54FE4F80819181E826F9260E
:102CD000F182E08206C08F5FEE0CFF1C8D30A9F6FA
:102CE000C5CF0E943B250E9408159091B30189171A
:102CF000C9F00E9408158093B3012A960FB6F89484
:102D0000DEBF0FBECDBFDF91CF911F910F91FF901E
:102D1000EF90DF90CF90BF90AF909F908F907F907B
:102D20000C94CA152A960FB6F894DEBF0FBECDBF1D
:102D3000DF91CF911F910F91FF90EF90DF90CF9097
:102D4000BF90AF909F908F907F900895CF93DF9327
:102D5000CDB7DEB72B970FB6F894DEBF0FBECDBF51
:102D60004F83588769877A878B87DE01119686E0C3
:102D7000FD0111928A95E9F785E0FE0137960190F1
:102D80000D928A95E1F749815A816B817C818D8111
:102D90009E810E945B1D2B960FB6F894DEBF0FBE7E
:102DA000CDBFDF91CF910895FC01808191810E9478
:102DB0002F200895CF93882309F4A9C0C82F823803
:102DC000C1F40E94081581FDA2C069E38091000151
:102DD000909101010E9417220E94BF202FEF81EEE7
:102DE00094E0215080409040E1F700C0000069E38A
:102DF00019C0833801F50E94081580FD88C063E57D
:102E000080910001909101010E9417220E94BF2031
:102E10002FEF81EE94E0215080409040E1F700C018
:102E2000000063E580910001909101010E94192248
:102E3000CF910C94BF208438C1F40E94081582FD04
:102E400066C067E480910001909101010E94172201
:102E50000E94BF202FEF81EE94E0215080409040EF
:102E6000E1F700C0000067E4DDCF8CEF8C0F813A02
:102E7000F8F48C2F0E94B210811149C06C2F809100
:102E80000001909101010E94E121882349F06C2FFB
:102E900080910001909101010E9419220E94BF209F
:102EA0006C2F80910001909101010E941722C0CFE8
:102EB00080E28C0F883048F4C77081E001C0880F31
:102EC000CA95EAF70E947120B3CFEBE5EC0FE3302F
:102ED00040F4F0E0E057FE4F808190E0CF910C94F9
:102EE0007815E8E5EC0FE73150F4F0E0EE0FFF1F46
:102EF000EE59FE4F80819181CF910C948E15C03F89
:102F000030F08C2F0E94AE23CF910C949B24CF9154
:102F10000895882309F464C0823879F40E94081562
:102F200081FF5EC069E380910001909101010E94E0
:102F300017220E94BF2069E310C08338B1F40E94B9
:102F4000081580FF4DC063E580910001909101015B
:102F50000E9417220E94BF2063E58091000190919A
:102F600001010E9419220C94BF20843879F40E9438
:102F7000081582FF35C067E480910001909101013E
:102F80000E9417220E94BF2067E4E7CF9CEF980FB2
:102F9000913A10F4682FE1CF90E2980F983050F4F6
:102FA000877091E001C0990F8A95EAF7892F0E94F6
:102FB0007720D9CF9BE5980F933020F480E090E004
:102FC0000C94781598E5980F973120F480E090E004
:102FD0000C948E15803F20F00E9416240C949B24A4
:102FE0000895CF93C82F0E94DA16C93349F42FEF02
:102FF00087EE93E0215080409040E1F700C0000050
:103000008C2FCF910C948917882321F00E94712076
:103010000C94BF200895882321F00E9477200C94FF
:10302000BF200895CF92DF92EF92FF920F931F93EC
:10303000CF93DF937C01062FC72FFC0115811295DA
:103040001F70D281D1110E9491200E946720882395
:1030500099F0DD2389F08C2F807F803421F080E28D
:10306000800F883048F082E00E9409210E9467208A
:1030700091E0D82ED92601C0D12CCC2EC2948FE05D
:10308000C8228C2D90E0FC01EA5AFF4F0C94F62DDB
:103090008C2F807FCF70882311F0C295C07FDD23F5
:1030A00099F0CC2309F48DC180E2800F883010F0B4
:1030B000011104C08C2F0E94712003C08C2F0E942C
:1030C00084200E94BF207DC1802F0E948917CC23BD
:1030D00009F49CC180E2800F883010F0011104C017
:1030E0008C2F0E94772003C08C2F0E948A200E9480
:1030F000BF208CC18C2F807FCF70803211F0C295A1
:10310000C07F002319F00130C9F022C0DD2371F027
:10311000112341F0113031F40E94A4208C2B0E9425
:10312000AC2074C10E94A4208C2B1DC0112319F067
:10313000113009F46BC10E94B52025C0DD2321F0B8
:10314000163008F063C10EC0153008F05FC11BC017
:10315000DD2361F0112331F0F701858180FF31C15A
:103160008F7085838C2F0E94041850C1112359F051
:10317000093309F037C1FFEF27EE83E0F15020401B
:103180008040E1F72DC18C2F0E940B183FC18C2F7E
:1031900086958695837019F0813061F037C1DD2303
:1031A00021F0802F9C2F937002C080E090E00E945D
:1031B000781534C1DD2321F0802F9C2F937002C03D
:1031C00080E090E00E948E1529C1802FDD2319F048
:1031D0000E94AE2302C00E9416240E949B241EC19E
:1031E0008C2F837009F045C0D11114C1402F429536
:1031F00046954770440F440F602F6F70862F90E004
:10320000A0E0B0E0042E04C0880F991FAA1FBB1FC6
:103210000A94D2F704FF10C00FE010E020E030E085
:1032200004C0000F111F221F331F4A95D2F70095CB
:1032300010952095309503C000E010E09801C695E8
:10324000C695C370BC01CD01602B712B822B932BD3
:10325000C23049F058F4C13019F00E94AC1EDAC0F7
:103260000E949A1ED7C00E94BE1ED4C00E94981E03
:10327000D1C0DD2319F08C2F817001C08695882381
:1032800009F4C8C0402F429546954770440F440F3B
:10329000602F6F70862F90E0A0E0B0E0042E04C095
:1032A000880F991FAA1FBB1F0A94D2F704FF10C0F2
:1032B0000FE010E020E030E004C0000F111F221FDB
:1032C000331F4A95D2F7009510952095309503C08D
:1032D00000E010E09801C695C695C370BC01CD0111
:1032E000602B712B822B932BC23049F058F4C130E4
:1032F00019F00E94711F8EC00E945F1F8BC00E9438
:10330000831F88C00E94D21E85C0CF70DD2339F094
:103310008C2F0E94F81E802F0E9404187BC0802FE3
:103320000E940B188C2F0E94191F74C0023F01F1DC
:1033300028F4003F41F0013FA1F03FC0033FF9F006
:10334000043F39F13AC0DD2341F0153008F05EC08A
:103350008C2F8F710E943E1F59C0163008F056C046
:10336000F7CFDD2339F08C2F8F710E94F81E4EC0ED
:10337000DD23C9F38C2F8F710E94191F47C0DD23F5
:1033800029F08C2F8F710E94E31E40C00E94DE1E28
:103390003DC0DD2349F0CF718C2F0E94F81E63E001
:1033A0008C2F0E94F42032C081E00E94092112304B
:1033B00068F182E00E94092129C0DD2331F0112348
:1033C00091F2802F0E94DA1621C0112399F209335D
:1033D00049F49FEFE7EEF3E09150E040F040E1F771
:1033E00000C00000802F0E94891710C04C2F4F7022
:1033F000602FC7010E9449090E94091E0FC04C2F6F
:103400004F70602FC7010E944C0908C088EF8C0DD7
:10341000843020F40E9408150E944009DD20C9F084
:103420000E94632080FD15C0F70112820E945D207A
:103430000E94F81EC7010E944A1A0E945D20DF9177
:10344000CF911F910F91FF90EF90DF90CF900C9450
:10345000191FDF91CF911F910F91FF90EF90DF9097
:10346000CF9008950F931F93CF93DF93EC01688162
:1034700079818A810E943A208C010E94951F0E94C6
:10348000861EB801CE010E941218DF91CF911F91C4
:103490000F910895CF93DF93EC01988189812B815F
:1034A0003C81232B31F08F3F31F481E09F3F19F4B1
:1034B00003C081E001C080E080FD19C0CE010E9400
:1034C000B50881110CC00E946720882381F08A8191
:1034D000882369F082E0DF91CF910C940921CE011D
:1034E0000E94321ACE01DF91CF910C948008DF91B7
:1034F000CF910895882321F00E9484200C94BF204E
:103500000895882321F00E948A200C94BF200895FA
:103510000E9491200E94A1200E94BF200E944E265E
:103520000E949B2480E090E00E94781580E090E06B
:103530000C948E1580910001909101010E941B2234
:103540000C94881A0E9481200C949A1AE92FE29513
:10355000EF704E2F50E0FA013297EE30F105B0F4E3
:10356000EA59FF4F0C94F62D803F91F018F4883EF5
:1035700068F40EC0843F51F40BC0883E48F0813F90
:1035800029F406C093FB882780F9089580E0089508
:1035900081E008950E942F200E94A61A0895CF93DB
:1035A000DF9300D000D01F92CDB7DEB70F900F9001
:1035B0000F900F900F90DF91CF910895CF93DF93ED
:1035C00000D000D000D0CDB7DEB726960FB6F89465
:1035D000DEBF0FBECDBFDF91CF9108951F93CF9374
:1035E000DF93C091BF0116E08091C001C81799F028
:1035F000D0E01C9FF0011D9FF00D1124EF53FE4FF2
:103600004081518162817381848195810E94DE1A9B
:103610002196C770E9CFDF91CF911F910895409116
:10362000F1015091F2016091F3017091F4018091E8
:10363000F5019091F6010C94DE1A0F931F93CF932E
:10364000DF938091F60182958F7009F05DC08091C3
:10365000F301882309F458C08091BF011091C00183
:103660006091F1017091F201C091F401D091F501E6
:1036700091E06F3F09F090E0292F06E0811709F4EF
:1036800043C0209721F07F3F21F030E003C031E0BC
:1036900001C0322F90E030FD34C0089FF001099F37
:1036A000F00D1124DF01AF53BE4F11963C911197DD
:1036B000371327C03C91361324C012963C911297C1
:1036C00031111FC013964D915C9114974C1B5D0BEB
:1036D000483C5105B0F48091F6018F708061809371
:1036E000F601EA53FE4F80818F708061808381EF05
:1036F00091E00E944A1ADF91CF911F910F910C9493
:10370000EE1A01968770BACFDF91CF911F910F917A
:1037100008959F92AF92BF92CF92DF92EF92FF9265
:103720000F931F93CF93DF93CDB7DEB761970FB69B
:10373000F894DEBF0FBECDBF8C0185E0F801DE013D
:103740001D9601900D928A95E1F7F8014081518113
:10375000E2809091F1016091F2012091F4013091A9
:10376000F5012115310531F06F3F31F481E09F3FC4
:1037700019F403C081E001C080E0F82FF1709F2EA2
:1037800080FD46C1F801A380B48081EFC82E81E09E
:10379000D82EF090F301F501E21BF30BFF2009F4A2
:1037A000DFC08091F601E83CF10508F09BC0282FAE
:1037B000207F09F052C0561313C0491311C0FE2CCC
:1037C000E1100EC08F7080618093F6010E940F1B84
:1037D000C6010E944A1A8091F601F801858358C1FA
:1037E000AB2831F05F3F31F481E04F3F19F403C063
:1037F00081E001C080E080FD03C081E08E2502C031
:1038000080E090E0F82FF170FF2E80FF1CC08091C7
:10381000BF012091C00136E0821709F417C190E082
:10382000389FF001399FF00D1124EF53FE4F618155
:10383000561306C06081461303C06281E61203C0BE
:1038400001968770E9CFFE2CEE2009F421C180910A
:10385000F60181608093F6015AC0561306C04913E1
:1038600004C0E11002C0F8019FC04D875E878D85BE
:103870009E850E94CA1A882379F1EE2069F1209171
:10388000F601822F82958F7090E0029774F08091FC
:10389000F1019091F20198878F831986BB86AA86E1
:1038A0002C87CE0107960E944A1A86E0F801A1EF04
:1038B000B1E001900D928A95E1F70E941D1B0E94D4
:1038C0000F1B0DC0561729F14D875E878D859E858C
:1038D0000E94CA1A81112CC0C8010E944A1AFF24F2
:1038E000F394D6C0282F207F69F77A2DB98AA88A49
:1038F0006E2D89890E94CF1A81EF91E00E944A1AA9
:1039000086E0F60111928A95E9F70E940F1BF12CCF
:10391000BFC04913D9CFE110D7CFF8018583C801C3
:103920000E944A1A86E0F60111928A95E9F7B0C022
:10393000EE2091F22091F601822F82958F7090E017
:1039400002970CF4B2CF8091F1019091F2019A8329
:1039500089831B82BD82AC822E83CE010196A3CFC8
:10396000E83CF10508F047C0FE2CEE2009F4B4CF86
:10397000561330C049132EC02091F60120FD21C0FE
:10398000822F82958F70482F50E041155105C9F064
:10399000F80125834F30510541F08F5F982F9295A4
:1039A000907F822F8F70892B8583C8010E944A1ACD
:1039B00086E0F801A1EFB1E001900D928A95E1F760
:1039C00042C086E0F801A1EFB1E001900D928A9526
:1039D000E1F75EC04D875E878D859E850E94CA1A7D
:1039E000811163CF8091F60181608093F601C80157
:1039F0000E944A1A4DC07A2DB98AA88A6E2D8989EB
:103A00000E94CF1A86E0F60111928A95E9F71BC051
:103A1000EE2009F461CF4D875E878D859E850E94DB
:103A2000CA1AF82E882309F457CF86E0F801A1EFCF
:103A3000B1E001900D928A95E1F781EF91E00E944B
:103A4000D4160E941D1B0E940F1B22C04D875E874B
:103A50008D859E850E942F20292F22952F70223040
:103A600028F49F7039F0811105C00BC0243028F470
:103A70009F7049F4805E883020F0C8010E944A1A85
:103A80009F2CF92C05C0F8019581907F99F7F9CF0B
:103A90008F2D61960FB6F894DEBF0FBECDBFDF91BC
:103AA000CF911F910F91FF90EF90DF90CF90BF903B
:103AB000AF909F9008951F93CF93DF93CDB7DEB75C
:103AC0002C970FB6F894DEBF0FBECDBF4F8358873B
:103AD00069877A878B879C87CE0107960E94891B0E
:103AE0008823D1F09F8188852A853B85232B31F05F
:103AF0008F3F31F481E09F3F19F403C081E001C0A2
:103B000080E080FD47C04F81588569857A858B8527
:103B10009C850E94DE1A3EC086E0FE013796DE01DB
:103B2000119601900D928A95E1F7FF81E8856A85EB
:103B30007B856115710531F0EF3F31F481E0FF3F86
:103B400019F403C081E001C080E080FD23C0209112
:103B5000C00130E0C9010196877099274091BF01EB
:103B600050E084179507F1F1F983EA837D836C8334
:103B700096E0929FD001939FB00D1124AF53BE4F9A
:103B8000FE01319601900D929A95E1F78093C00164
:103B90000E94EE1A16E08091BF019091C001891732
:103BA00071F1189FC00111248F539E4F0E94891BF1
:103BB000882329F1E091BF011E9FF0011124EF53EA
:103BC000FE4F4081518162817381848195810E9481
:103BD000DE1A8091BF0190E001968770992780934B
:103BE000BF01D9CF0E94A21A1092C0011092BF014A
:103BF000E1EFF1E086E0DF011D928A95E9F72C966E
:103C00000FB6F894DEBF0FBECDBFDF91CF911F91ED
:103C10000895EF92FF920F931F93CF93DF938C0140
:103C2000892B09F46CC0F12CEE24E394E801219671
:103C3000F8018491843740F4843008F051C0813019
:103C400081F0823019F15BC0853709F444C0A8F1D6
:103C50009CE7980F903708F052C08F770E94891721
:103C600041C00E5F1F4FFE01849190E2980F983083
:103C700050F48770FE2D01C0FF0F8A95EAF78F2F51
:103C80000E94942014C00E94DA162DC00E5F1F4FB0
:103C9000FE01849190E2980F983060F48770FE2DB9
:103CA00001C0FF0F8A95EAF78F2F0E949A200E9489
:103CB000BF2019C00E94891716C00E5F1F4FFE015A
:103CC000C491CC2381F08FE99FE00197F1F700C008
:103CD0000000C150F6CF0E5F1F4FFE01F49003C0ED
:103CE0000E94DA168E018F2D882309F49FCFEFE909
:103CF000FFE03197F1F700C000008150F5CFDF9170
:103D0000CF911F910F91FF90EF900895089508951E
:103D10000C94871E0C94881E0E948A1E60932802B1
:103D20007093290280932A0290932B020C94881A94
:103D30000C948C1E0F931F9300912802109129025E
:103D400020912A0230912B02602B712B822B932B16
:103D50001F910F910C948C1E0F931F9300912802BA
:103D60001091290220912A0230912B0260237123A5
:103D7000822393231F910F910C948C1E0F931F93FA
:103D8000009128021091290220912A0230912B02E1
:103D900060277127822793271F910F910C948C1E07
:103DA0000C94871E0E94D01E6093240270932502FB
:103DB00080932602909327020C94881A60E070E0AA
:103DC000CB010C94D21E0F931F9341E050E060E0B2
:103DD00070E08A019B0104C0000F111F221F331FD6
:103DE0008A95D2F7C901B8011F910F910C94D21E88
:103DF0000F931F9341E050E060E070E004C0440F77
:103E0000551F661F771F8A95D2F7809124029091E3
:103E10002502A0912602B09127028A019B01082B5E
:103E2000192B2A2B3B2BC901B8011F910F910C9420
:103E3000D21E0F931F9341E050E060E070E004C099
:103E4000440F551F661F771F8A95D2F740955095EE
:103E5000609570958091240290912502A091260290
:103E6000B09127028A019B01082319232A233B23AF
:103E7000C901B8011F910F910C94D21E0F931F938B
:103E800041E050E060E070E004C0440F551F661F41
:103E9000771F8A95D2F78091240290912502A091F4
:103EA0002602B09127028A019B01082719272A2799
:103EB0003B27C901B8011F910F910C94D21E0F939B
:103EC0001F93009124021091250220912602309127
:103ED0002702602B712B822B932B1F910F910C9437
:103EE000D21E0F931F93009124021091250220915E
:103EF00026023091270260237123822393231F918E
:103F00000F910C94D21E0F931F93009124021091D5
:103F100025022091260230912702602771278227EF
:103F200093271F910F910C94D21E08952DE0929F1C
:103F3000800D1124E82FE695E695E695877051E00F
:103F400001C0550F8A95EAF785E0E89FF00111243A
:103F5000E950FE4F20E030E070E04081CB01022EBE
:103F600002C0969587950A94E2F78170819584271F
:103F70008523842781932F5F3F4F2530310569F7D3
:103F800008952DE0929F800D1124682F6695669507
:103F90006695982F977085E0689FB001112440E0E6
:103FA00050E080E0FB01E40FF51FE950FE4F208157
:103FB00030E0092E02C0369527950A94E2F7217069
:103FC0003327042E01C0220F0A94EAF7822B4F5F99
:103FD0005F4F4530510531F70895BF92CF92DF9280
:103FE000EF92FF920F931F93CF93DF938C01C090BA
:103FF0002402D0902502E0902602F09027028091C2
:10400000280290912902A0912A02B0912B02C82A7D
:10401000D92AEA2AFB2ACFE1D0E0D701C6010C2E2B
:1040200004C0B695A795979587950A94D2F780FD19
:1040300004C0219790F7B12C07C0BC2EB8018C2F7B
:104040000E9468090197A9F38B2DDF91CF911F91F1
:104050000F91FF90EF90DF90CF90BF900895CF9396
:10406000DF93EC010E94ED1FBE010E946809DF9101
:10407000CF9108951F93CF93DF93EB019091BE01F1
:10408000992321F0CB010E942F2013C0882349F0EF
:10409000CB010E94ED1F182F682FCE010E94961FA2
:1040A00004C0CB010E94C11F182FBE01812F0E94A6
:1040B0006809DF91CF911F91089580912C02859519
:1040C00085958595089580912C028770089590912B
:1040D0002C02977081E009F480E008958091380205
:1040E000089590913802892B809338020895809525
:1040F0009091380289238093380208958093380282
:10410000089510923802089590913702892B809378
:104110003702089580959091370289238093370262
:10412000089510923702089590913602892B80935A
:104130003602089580959091360289238093360245
:10414000089510923602089580912D0208950895E1
:104150000C94A7200C94A82090912D02981721F080
:1041600080932D020C94AA20089580912D0288231B
:1041700029F010922D0280E00C94AA200895E0917D
:104180000001F0910101809138028083E0910001EB
:10419000F0910101908180913702892B8083E09119
:1041A0000001F0910101908180913602892B80837A
:1041B00080912D02882381F0E0910001F0910101AE
:1041C0009081892B808380910001909101010E9450
:1041D000D52181110E94B5208091000190910101AB
:1041E0000C9421150C94A72098E0899F900111242C
:1041F000262B20932C020E94F81E80912C0285957C
:10420000859585950C94F22010922C0280E00C94F8
:10421000F22020912C028095822380932C02982FEB
:10422000977079F430E0482F082E000C550B2417B6
:10423000350739F08595859585950E94191F0C9451
:10424000042108959093A3018093A201089580E032
:1042500090E00E94182E21E08C3E9E4F09F020E055
:10426000822F089582E090E00C94102E83E090E07D
:104270000C94102ECF9384E090E00E94102EC82F53
:1042800081E290E00E94102E2C2F30E0A901582BE3
:10429000CA01CF910895CF93C92F682F84E090E091
:1042A0000E941E2E6C2F81E290E0CF910C941E2E66
:1042B000AB01BC018FE090E00C94302EAB01BC014F
:1042C00083E190E00C94302E60E070E0CB010C9420
:1042D0005E2160E070E0CB010E9458210C946421C3
:1042E0006CEE7EEF80E090E00E943C2E60E082E089
:1042F00090E00E941E2E60E083E090E00E941E2E5F
:10430000109228021092290210922A0210922B0277
:1043100060E084E090E00E941E2E60E081E290E088
:104320000E941E2E60E085E090E00E941E2E60E05C
:1043300086E090E00E941E2E6FEF87E090E00E94E2
:104340001E2E40E050E0BA0188E090E00E94302E3E
:1043500060E08DE090E00E941E2E40E050E0BA0147
:1043600088E190E00E94302E60E087E190E00E94BA
:104370001E2E40E050E0BA018CE190E00E94302E09
:1043800060E080E290E00E941E2E40E050E0BA0122
:1043900088E190E00E94302E0C9469210C947021E9
:1043A000682F8EE090E00C941E2EFC01329697E070
:1043B00080E0915029F021912223D9F38F5FF9CF2A
:1043C0000895662349F0FC01329608962191621700
:1043D00029F0E817F907D1F780E0089581E0089502
:1043E0009C01FC0132969FEF80E04191461789F0D5
:1043F0009F3F19F4411101C0982F8F5F8630A9F7B4
:104400009F3F39F0F901E90FF11D97FDFA9562839D
:10441000089508959C012A5F3F4FFC014281461395
:1044200001C01282019682179307B9F708950C9480
:10443000F0210C940A22029626E0FC0111922A95A2
:10444000E9F7089508950C9422220C942222CF9328
:104450000E9425220E94FD0B0E942322C0E08C2F87
:104460000E94570B892B29F4CF5FC530C1F780E03C
:1044700001C081E0CF9108950C9422220C943C223B
:104480000E943E2280917902843049F110923A02D2
:1044900020E488E190E00FB6F894A895809360003E
:1044A0000FBE2093600080E00E9440090E943E22DF
:1044B00083B7817F846083BF83B7816083BF789433
:1044C000889583B78E7F83BF0FB6F894A8958091A7
:1044D0006000886180936000109260000FBE0895B4
:1044E0000C9422220E94A21A0E9408150E944009E0
:1044F0000C9470221F920F920FB60F9211248F937B
:104500009F93AF93BF9380913A02811113C0809122
:104510006F0290917002A0917102B0917202419667
:10452000A11DB11D80936F0290937002A093710240
:10453000B0937202BF91AF919F918F910F900FBE78
:104540000F901F90189582E084BD93E095BD9AEF7F
:1045500097BD80936E0008952FB7F89480916F02F5
:1045600090917002A0917102B09172022FBF0895D4
:104570002FB7F89460916F02709170028091710270
:10458000909172022FBF08959C014FB7F8948091CB
:104590006F0290917002A0917102B09172024FBFB0
:1045A000821B930B089578941F920F920FB60F926F
:1045B00011248F939F93AF93BF9380916F0290913B
:1045C0007002A0917102B09172020196A11DB11DFD
:1045D00080936F0290937002A0937102B093720265
:1045E000BF91AF919F918F910F900FBE0F901F9031
:1045F000189587E797E790930108809300089AE061
:1046000088E10FB6F894A895809360000FBE909350
:104610006000FFCF0E942721811102C00E94CE219D
:104620000E943221809339020E943A2190937402B1
:10463000809373020E943621682F70E080E090E042
:104640000E94981E6091240270912502809126029A
:10465000909127020C94D01E8091410280FF0BC0E4
:104660006091070185E0689FB001112475956795F9
:10467000759567952BC081FF09C06091070185E0A2
:10468000689FB00111247595679520C082FF07C00F
:104690006091070185E0689FB001112417C09091D7
:1046A00040029923D1F060910601961788F7209176
:1046B000070185E0289F90011124929FA001939FFC
:1046C000500D112470E0CA010E94E22D603871057E
:1046D00040F46115710519F406C065E070E0862F9D
:1046E00008958FE7089581E008958091410280FF49
:1046F00008C06091030170E07595679575956795A1
:1047000021C081FF06C06091030170E07595679537
:1047100019C082FF04C06091030170E010C0909145
:104720003F02992399F0609102019617A0F78091BA
:104730000301899FC001112470E00E94E22D6038BE
:10474000710540F46115710519F406C061E070E06F
:10475000862F08958FE7089581E00895803F21F422
:104760000E942C23819504C0813F29F40E942C23B0
:10477000809345020895823F21F40E942C23819565
:1047800004C0833F29F40E942C238093440208959F
:10479000893F19F40E94752305C08A3F31F40E94B5
:1047A000752381958093460208958B3F21F40E94E2
:1047B0007523819504C08C3F29F40E947523809352
:1047C00047020895843F21F480914302816017C01D
:1047D000853F21F480914302826011C0863F21F41D
:1047E0008091430284600BC0873F21F48091430293
:1047F000886005C0883F31F48091430280618093D6
:10480000430208958D3F21F48091410281600BC0E5
:104810008E3F21F480914102826005C08F3F29F4D0
:10482000809141028460809341020895803F39F471
:104830008091450287FF6AC01092450267C0813FA0
:1048400029F4809145021816BCF360C0909144028F
:10485000823F29F497FF5AC01092440257C0833F09
:1048600019F41916CCF352C090914602893F31F4E5
:1048700019160CF04BC01092460248C08A3F19F43A
:1048800097FF44C0F8CF8B3F39F48091470287FFF0
:104890003DC0109247023AC08C3F29F480914702F4
:1048A0001816BCF333C0843F21F4809143028E7FFD
:1048B00017C0853F21F4809143028D7F11C0863F50
:1048C00021F4809143028B7F0BC0873F21F48091BC
:1048D0004302877F05C0883F31F4809143028F7E79
:1048E0008093430213C08D3F21F4809141028E7F5B
:1048F0000BC08E3F21F4809141028D7F05C08F3F18
:1049000029F4809141028B7F80934102809144027F
:10491000811106C080914502811102C010924002AF
:1049200080914602811106C080914702811102C028
:1049300010923F0208958091390283FF7EC08EEF6E
:104940009BE00E943607809143021F928F9389EF6C
:104950009BE09F938F930E94CF0787EF9BE00E947D
:10496000360780914402282F082E000C330B3F930A
:104970008F9384EF9BE09F938F930E94CF0782EFEA
:104980009BE00E94360780914502282F082E000CDC
:10499000330B3F938F938FEE9BE09F938F930E94F7
:1049A000CF078DEE9BE00E94360780914602282FAC
:1049B000082E000C330B3F938F938AEE9BE09F935E
:1049C0008F930E94CF0788EE9BE00E94360780916C
:1049D0004702282F082E000C330B3F938F9385EE50
:1049E0009BE09F938F930E94CF0782EE9BE00E94F3
:1049F0003607809140021F928F938FED9BE09F932B
:104A00008F930E94CF078DED9BE00E943607809127
:104A100041021F928F938AED9BE09F938F930E9498
:104A2000CF0787ED9BE00E9436078DB79EB74C9667
:104A30000FB6F8949EBF0FBE8DBF0E94AC2220918E
:104A40004402211104C020914502222321F09093B9
:104A50003E0280933D0220914602211104C0209124
:104A60004702222321F090933C0280933B0282E490
:104A700092E00C946A15EF92FF920F931F93CF93DD
:104A8000DF9300D000D000D0CDB7DEB786E0E2E4FF
:104A9000F2E0DE01119601900D928A95E1F7E09027
:104AA0004402F09045020091460210914702109294
:104AB0004402109245021092460210924702E11001
:104AC00003C0FF2009F45DC080913D0290913E0239
:104AD0000E94C422AC0190914002992339F02091A8
:104AE000080130E02417350758F04BC02091090128
:104AF0008AE0289F900111242417350718F041C03F
:104B00009F3F19F09F5F90934002EE2061F00E945A
:104B10002C231E1414F09FEF01C091E0989F902D5C
:104B2000112490934402FF2061F00E942C231F1453
:104B300014F09FEF01C091E0989F902D1124909365
:104B40004502309144023323E1F0209145022223B3
:104B5000C1F045EB3403C0011124992319F090935F
:104B6000440203C081E08093440235EB2303C0017B
:104B70001124992319F09093450203C081E080939A
:104B80004502011103C0112309F45DC080913B026D
:104B900090913C020E94C422AC0190913F02992363
:104BA00039F02091040130E02417350758F04BC04C
:104BB000209105018AE0289F9001112424173507D0
:104BC00018F041C09F3F19F09F5F90933F02002370
:104BD00061F00E947523101614F09FEF01C091E060
:104BE000989F902D112490934602112361F00E940A
:104BF0007523111614F09FEF01C091E0989F902D3E
:104C0000112490934702309146023323E1F0209122
:104C100047022223C1F045EB3403C001112499233C
:104C200019F09093460203C081E08093460235EB71
:104C30002303C0011124992319F09093470203C064
:104C400081E0809347028091440281110BC08091E2
:104C50004502811107C080914602811103C08091F5
:104C6000470281110E949B24EB82FC820D831E83EC
:104C700086E0FE013196A2E4B2E001900D928A95A1
:104C8000E1F726960FB6F894DEBF0FBECDBFDF91D9
:104C9000CF911F910F91FF90EF900895E2E4F2E021
:104CA00086E0DF011D928A95E9F71092400210928A
:104CB0003F021092410208958091530208959FB7D8
:104CC000F89410924A029FBF90917902943009F0B3
:104CD00057C09091E9009F703091EC00232F217014
:104CE00030FD20E8922B23E02093E9002091EB0097
:104CF00020FF43C02091EE0027FF3FC020914802D3
:104D0000222321F02091E80025FF37C010924802AD
:104D100026E03091E80035FD15C03091790234303D
:104D200061F53091EB0035FD28C0215021F481E080
:104D30008093480222C0EFE9FFE03197F1F700C00D
:104D40000000E7CF8093F1008091E80085FD0AC064
:104D50008091E80080FFFCCF8091E8008E778093FF
:104D6000E80006C08FB7F89421E020934A028FBF75
:104D70009F709093E90080E008959F709093E90000
:104D80008FEF0895CF93DF9300D01F92CDB7DEB79A
:104D900090917902943019F589837B836A8382E04C
:104DA0008093E9008FEF9091E800815095FD06C057
:104DB00095ED9A95F1F700008111F5CF8091E8000B
:104DC00085FF0DC040E050E063E070E0CE01019649
:104DD0000E9439298091E8008E778093E8000F9037
:104DE0000F900F90DF91CF910895BC0184E00C9457
:104DF000C226BC0183E00C94C22622E02093E90085
:104E00002FEF3091E800215035FD06C035ED3A9581
:104E1000F1F700002111F5CF2091E80025FF0BC02C
:104E200040E050E066E070E00E9439298091E8009F
:104E30008E778093E8000895CF93DF9321E020934D
:104E4000E9002FEF3091E800215035FD06C035ED27
:104E50003A95F1F700002111F5CF2091E80025FFE8
:104E600014C0EC0140E050E068E070E00E94392995
:104E70008091E8008E778093E80088E0FE01ABE443
:104E8000B2E001900D928A95E1F7DF91CF910895FC
:104E900086E49CE00E94360780917802811109C067
:104EA0000E94CA2A0E94272B8091E200846080938E
:104EB000E200089582E49CE00E9436071092780296
:104EC00008958EE39CE00C9436078AE39CE00C94F2
:104ED000360786E39CE00E9436070C9472222091EC
:104EE00049022F5F822F62E30E94D62D992319F089
:104EF0002093490208951092490280914A02882322
:104F000071F180917902843041F58091E9008F70D0
:104F10002091EC00922F917020FD90E8892B93E076
:104F20009093E9009091EB0090FF14C09091EE00F7
:104F300097FF10C09091E80095FF03C01092F10018
:104F4000F9CF9091E80090FF05C09091E8009E771E
:104F50009093E8008F708093E90010924A020895C0
:104F600042E061EC81E00E94432A42E261EC82E08F
:104F70000E94432A42E261EC83E00C94432A809130
:104F80007B02833009F460C030F4813071F08230EC
:104F900009F499C008958A3009F485C08B3009F46A
:104FA0006BC0893009F0A7C020C080917A02813A95
:104FB00009F0A1C08091E800877F8093E80080918C
:104FC0007E0290917F02892B21F468E08BE492E0CD
:104FD00003C060E080E090E070E00E94842980914E
:104FE000E8008B778093E800089580917A028132FF
:104FF00009F081C080917E0290917F02029708F0B3
:105000007AC08091E800877F8093E8008091E80073
:1050100082FD05C0809179028111F8CF6CC020918A
:10502000F3008091F20090E0922B029729F4809196
:10503000F1008B7F813021F48091F1008093530245
:105040008091E8008B7753C080917A02813A09F011
:1050500052C080917E0290917F02892B09F04BC053
:105060008091E800877F8093E8008091E80080FFCE
:10507000FCCF8091140136C080917A028132D9F53B
:1050800080917E0290917F02892BA9F58091E800A2
:10509000877F8093E8000E94782A80917C02809329
:1050A00014010C94A21A80917A02813221F5809128
:1050B000E800877F8093E8000E94782A80917D0233
:1050C00080935402089580917A02813AA1F48091EC
:1050D000E800877F8093E8008091E80080FFFCCFA4
:1050E000809154028093F1008091E8008E77809344
:1050F000E8000C94782A089584B7877F84BF0FB6A0
:10510000F894A89580916000886180936000109267
:1051100060000FBE90E080E80FB6F89480936100C5
:10512000909361000FBE0E94BC150E94CA2A0E9483
:10513000272B8091E20084608093E2008FE596E265
:105140000E94222178940E94BB2D0E94C2158AE001
:1051500091E00E94031585E29CE00E943607809151
:105160007902853089F481E29CE00E9436070E9432
:10517000402280917702882391F30E94272288237E
:1051800071F30E942329EBCF0E94F2150E94B01503
:105190000E94AF15E4CF0C94CD28292F332723305C
:1051A0003105C9F060F42130310581F0223031053C
:1051B00009F041C08BE590E022E73CE040C021329D
:1051C0003105E1F02232310531F135C082E190E064
:1051D0002DEC3CE034C099278130910549F028F04E
:1051E000029749F5EAE4FCE005C0EEE6FCE002C007
:1051F000EEE5FCE0849190E09F0121C063307105F1
:10520000D0F4660F771FFB01E456FE4F20813181F9
:1052100089E090E014C06330710568F4FB01EE0F83
:10522000FF1FEA56FE4F20813181FB01ED56FE4FF4
:10523000808190E004C080E090E020E030E0FA015E
:1052400031832083089580E189BD82E189BD09B45D
:1052500000FEFDCF8091D8008F7D8093D800809193
:10526000E00082608093E0008091E00081FDFCCF4F
:105270000895CF92DF92EF92FF920F931F93CF93F7
:10528000DF93EC018B017A010E94972A811133C0D0
:10529000E114F10439F0F70180819181081B190BA9
:1052A000C80FD91FC12CD12C0115110519F18091FE
:1052B000E80085FD16C08091E8008E778093E800B5
:1052C000E114F10449F0F70180819181C80ED91EE3
:1052D000D182C08285E00FC00E94972A882321F3E3
:1052E0000AC089918093F10001501109FFEFCF1A94
:1052F000DF0ADACF80E0DF91CF911F910F91FF900D
:10530000EF90DF90CF90089520918002309181023C
:105310002617370748F06115710539F42091E80028
:105320002E772093E80001C0B901FC0120E061154F
:10533000710579F1809179028823F1F18530F1F1DD
:105340008091E80083FD3CC08091E80082FD2EC082
:105350008091E80080FFEBCF2091F3008091F20074
:1053600090E0922B6115710551F08830910538F469
:1053700021912093F100615071090196F3CF21E052
:10538000089709F020E08091E8008E778093E8008C
:10539000CECF2111CFCF0AC080917902882361F04E
:1053A000853061F08091E80083FD0AC08091E800BB
:1053B00082FFF2CF80E0089582E0089583E00895AF
:1053C00081E00895209180023091810226173707ED
:1053D00048F06115710539F42091E8002E7720938B
:1053E000E80001C0B901FC0120E06115710591F1EF
:1053F00080917902882309F440C0853009F43FC0C8
:105400008091E80083FD3DC08091E80082FD2FC0BF
:105410008091E80080FFE9CF2091F3008091F200B5
:1054200090E0922B6115710559F08830910540F498
:1054300024912093F1003196615071090196F2CFC9
:1054400021E0089709F020E08091E8008E778093B2
:10545000E800CBCF2111CCCF0AC0809179028823FC
:1054600061F0853061F08091E80083FD0AC0809191
:10547000E80082FFF2CF80E0089582E0089583E0A3
:10548000089581E00895982F973068F59093E9008A
:10549000981739F07091EC002091ED005091F000D8
:1054A00003C0242F762F50E021FD02C09F5FECCF78
:1054B0003091EB003E7F3093EB003091ED003D7F6B
:1054C0003093ED003091EB0031603093EB0070933E
:1054D000EC002093ED005093F0002091EE0027FDAA
:1054E000E5CF80E008958F708093E90081E0089512
:1054F00080917A0287FF11C08091E80082FD05C08B
:10550000809179028111F8CF11C08091E8008B77EA
:105510000BC080917902882349F08091E80080FFD8
:10552000F8CF8091E8008E778093E800089520916D
:10553000E4003091E50095E64091EC00842F817005
:1055400040FF23C08091E80080FD1DC0809179025A
:10555000882399F0853099F08091EB0085FD11C08A
:105560004091E4005091E5002417350729F391504C
:1055700011F09A01E1CF84E0089582E0089583E07C
:10558000089581E0089580E008954091E80042FF89
:10559000DDCF08950E94382B0E94402BE0EEF0E012
:1055A000808181608083E8EDF0E080818F77808367
:1055B00019BCA7EDB0E08C918E7F8C9380818F7E9B
:1055C00080831092780208950F931F93CF93DF93F7
:1055D0000E94382B0E94402BC8EDD0E088818F7745
:1055E000888388818068888388818F7D888319BCBF
:1055F0001092790210927502109277021092760240
:1056000000EE10E0F80180818B7F808388818160CB
:10561000888342E060E080E00E94432AE1EEF0E00F
:1056200080818E7F8083E2EEF0E0808181608083E4
:10563000808188608083F80180818E7F808388816B
:1056400080618883DF91CF911F910F910895E8EDDC
:10565000F0E080818F7E8083E7EDF0E080818160E3
:10566000808384E082BF81E0809378020C94E42AF6
:10567000E8EDF0E080818E7F80831092E200089553
:105680001092DA001092E10008951F920F920FB667
:105690000F9211242F933F934F935F936F937F93B8
:1056A0008F939F93AF93BF93EF93FF938091E1000C
:1056B00082FF0BC08091E20082FF07C08091E10071
:1056C0008B7F8093E1000E946F278091DA0080FF3A
:1056D0001FC08091D80080FF1BC08091DA008E7FB0
:1056E0008093DA008091D90080FF0DC080E189BDF0
:1056F00082E189BD09B400FEFDCF81E0809379028B
:105700000E94482705C019BC109279020E945A27AE
:105710008091E10080FF19C08091E20080FF15C0F8
:105720008091E2008E7F8093E2008091E2008061B0
:105730008093E2008091D80080628093D80019BCE9
:1057400085E0809379020E9465278091E10084FFC3
:1057500030C08091E20084FF2CC080E189BD82E1ED
:1057600089BD09B400FEFDCF8091D8008F7D809364
:10577000D8008091E1008F7E8093E1008091E2006B
:105780008F7E8093E2008091E20081608093E2004E
:1057900080917502882311F084E007C08091E300B6
:1057A00087FD02C081E001C083E0809379020E94FE
:1057B00069278091E10083FF29C08091E20083FF87
:1057C00025C08091E100877F8093E10082E0809393
:1057D0007902109275028091E1008E7F8093E10042
:1057E0008091E2008E7F8093E2008091E2008061F0
:1057F0008093E20042E060E080E00E94432A8091D2
:10580000F00088608093F0000E946127FF91EF9183
:10581000BF91AF919F918F917F916F915F914F91C8
:105820003F912F910F900FBE0F901F9018951F92D0
:105830000F920FB60F9211242F933F934F935F93C4
:105840006F937F938F939F93AF93BF93CF93DF9388
:10585000EF93FF93C091E900CF708091EC00D82FB7
:10586000D17080FDD0E81092E9008091F000877F30
:105870008093F00078940E945B2C1092E900809154
:10588000F00088608093F000CD2BCF70C093E900CA
:10589000FF91EF91DF91CF91BF91AF919F918F9148
:1058A0007F916F915F914F913F912F910F900FBE1C
:1058B0000F901F9018951F93CF93DF93CDB7DEB74E
:1058C000AA970FB6F894DEBF0FBECDBFEAE7F2E0AD
:1058D0008091F100819322E0E238F207C9F70E943B
:1058E000BF278091E80083FF2EC180917A029091BA
:1058F0007B02492F50E04A30510508F024C1FA01DB
:10590000EC58FF4F0C94F62D803821F0823809F0C6
:105910001AC108C08091760290917702992389F08C
:1059200082600FC080917E028F70873008F00BC1BB
:105930008093E9008091EB0085FB882780F9109225
:10594000E9009091E800977F9093E8008093F10040
:105950001092F100D1C0282F2D7F09F0F4C08823C8
:1059600019F0823061F0EFC080917C02813009F043
:10597000EAC0933009F080E0809377022EC08091D6
:105980007C0281112AC080917E028F702FEF280F38
:10599000263008F0D8C08093E9002091EB0020FF6A
:1059A0001CC0933021F48091EB00806214C0909170
:1059B000EB0090619093EB0021E030E0A90102C080
:1059C000440F551F8A95E2F74093EA001092EA00CF
:1059D0008091EB0088608093EB001092E900809149
:1059E000E800877F8093E8000E94782AACC081118C
:1059F000AAC010917C021F778091E3008078812BF0
:105A00008093E3008091E800877F8093E8000E9404
:105A1000782A8091E80080FFFCCF8091E3008068C5
:105A20008093E300111102C082E001C083E0809303
:105A3000790289C08058823008F085C080917C024C
:105A400090917D028C3D53E0950779F583E08A8340
:105A50008AE289834FB7F894DE01139620E03EE096
:105A600051E2E32FF0E050935700E49120FF03C090
:105A7000E295EF703F5FEF708E2F90E0EA3010F00C
:105A8000C79601C0C0968D939D932F5F243149F72F
:105A90004FBF8091E800877F8093E8006AE270E062
:105AA000CE0101960E94842916C060917E027091F9
:105AB0007F02AE014F5F5F4F0E94CB28BC01892B54
:105AC00009F441C09091E800977F9093E8008981A4
:105AD0009A810E94E2298091E8008B778093E80008
